:020000040800F2
:10000000181A0020D50100083532000831320008E6
:1000100033320008F90E0008C9370008000000005C
:10002000000000000000000000000000173400087D
:10003000710F000800000000373200081934000872
:10004000EF010008EF010008EF010008EF010008D0
:10005000EF010008EF010008750F0008D90F000834
:10006000F10F00080510000819100008FB0E000829
:10007000FD0E0008090F0008150F0008210F0008E9
:100080002D0F0008390F0008EF010008EF010008EC
:10009000EF010008EF010008EF010008EF01000880
:1000A000EF010008EF010008EF010008EF01000870
:1000B00079340008C5340008EF010008EF0100089A
:1000C000EF010008EF010008EF010008EF01000850
:1000D000EF0100088136000801370008EF01000831
:1000E000890F0008EF010008EF010008EF01000888
:1000F000EF010008EF010008EF010008EF01000820
:10010000EF010008EF010008EF010008EF0100080F
:10011000EF010008EF010008EF010008EF010008FF
:10012000EF010008EF010008EF010008EF010008EF
:1001300000F002F800F03FF80AA090E8000C8244BA
:100140008344AAF10107DA4501D100F034F8AFF297
:10015000090EBAE80F0013F0010F18BFFB1A43F0A5
:1001600001031847DC580000FC580000103A24BF77
:1001700078C878C1FAD8520724BF30C830C144BF0C
:1001800004680C607047000000230024002500264E
:10019000103A28BF78C1FBD8520728BF30C148BFEA
:1001A0000B607047642900F07D80002070471FB508
:1001B0001FBD10B510BD00F084F91146FFF7F7FF21
:1001C00003F04AFC00F0A2F903B4FFF7F2FF03BC0E
:1001D00000F0AAF90948804709480047FEE7FEE712
:1001E000FEE7FEE7FEE7FEE7FEE7FEE7FEE7FEE7E7
:1001F00004480549054A064B7047000031340008A1
:100200003101000818100020181A002018120020D0
:10021000181200200FB41CB5074B06AA7B44694690
:100220000090059800F035F90020694600F044F987
:100230001CBC5DF814FB0000990200002DE9F041A0
:100240000E460446002020622046E168884730B30D
:10025000252805D0D4E901219047206A401CF2E707
:10026000E168204600278847050018D0A5F1410025
:10027000192802D820354FF4006732462946204617
:100280002760FFF78FFF40B1012804D0F61D26F04C
:1002900007060836D8E7361DD6E72846DAE7206A8B
:1002A000BDE8F0812DE9F04106460024106875296B
:1002B000314616A510D0AFF30080002802DA404284
:1002C00013A507E031688A0701D512A502E04907A6
:1002D00004D511A5012401E0AFF3008000210A221A
:1002E00006F1240709E0B0FBF2FCB0FBF2F302FBDD
:1002F0001C00303078541846491C0028F3D123469E
:100300002A463046BDE8F04100F064B80000000025
:100310002D0000002B0000002000000010B5203A46
:10032000C0F00B80B1E81850203AA0E81850B1E8AE
:100330001850A0E81850BFF4F5AF5FEA027C24BF64
:10034000B1E81850A0E8185044BF18C918C0BDE85B
:1003500010405FEA827C24BF51F8043B40F8043B24
:1003600008BF7047D20728BF31F8023B48BF11F8D9
:10037000012B28BF20F8023B48BF00F8012B704733
:100380004FF0000200B5134694469646203922BF2E
:10039000A0E80C50A0E80C50B1F12001BFF4F7AF79
:1003A000090728BFA0E80C5048BF0CC05DF804EB5B
:1003B000890028BF40F8042B08BF704748BF20F8C9
:1003C000022B11F0804F18BF00F8012B70477047C7
:1003D000704770472DE9F0470D469946924604460E
:1003E00000F124080168880604D5E06921F01001B5
:1003F000216000E00120A84201DD471B00E000274A
:10040000A1697A1902EB0900081AA0612078C006D8
:1004100002D42046AFF30080002608E0D4E9012191
:100420001AF806009047206A401C761C20624E4550
:10043000F4DB2078C0060AD52046AFF3008006E042
:10044000D4E9012130209047206A401C2062381EE8
:10045000A7F10107F4DC07E0D4E9012118F8050051
:100460009047206A401C2062281EA5F10105F3DC9C
:100470002046AFF300802078000602D50220BDE8B8
:10048000F0870120FBE7000001694A1C026108783F
:10049000704700B58FB0CDE90131002105910549C4
:1004A0007944CDE9031011466846FFF7C7FE0FB047
:1004B00000BD0000E5FFFFFF0A6802F8010B0A60BB
:1004C0007047754600F02CF8AE4605006946534665
:1004D00020F00700854618B020B5FFF789FEBDE87B
:1004E00020404FF000064FF000074FF000084FF09B
:1004F000000B21F00701AC46ACE8C009ACE8C0092C
:10050000ACE8C009ACE8C0098D46704710B5044698
:10051000AFF300802046BDE81040FFF755BE000055
:1005200000487047B80F002001491820ABBEFEE715
:1005300026000200704700007FB5064601F0EEFD80
:10054000324C012525706078B04203D001F07CF870
:10055000A57066700C200025052E52D2DFE806F04B
:10056000030A1C2E4000A07801284AD1A57001F092
:1005700079F846E0A17801290BD1A570CDE90105F4
:1005800023A1009100210C2340220395084601F08D
:10059000EBF803F0D1FB34E0A178012900D1A5707C
:1005A000CDE901051CA1009100210C2340220395F7
:1005B000084601F0D9F803F0BDFB22E0A17801293B
:1005C0000BD1A570CDE9010515A1009100210C23E7
:1005D00040220395084601F0C7F803F0ADFB10E098
:1005E000A178012900D1A570CDE901050EA10091E6
:1005F00000210C2340220395084601F0B5F803F0D2
:1006000099FB257004B0304670BD000082000020C8
:100610007374617465310000737461746532000035
:100620007374617465330000737461746534000021
:1006300000B585B00B48816941F00801816180698E
:1006400000F0080000904FF48070019001200290AB
:1006500003900320049001A9034801F0B1FE05B006
:1006600000BD000000100240000C014082B00648AE
:10067000816941F008018161806900F00800019002
:1006800002B000F003B80000001002401FB50820BF
:10069000009000200190012002906946014801F07D
:1006A0008FFE1FBD000C01401FB5082000900120E7
:1006B0000190032003906946014801F081FE1FBDAF
:1006C000000C01400021012802D102480068C1B29B
:1006D000084670470C812142012801D10148016080
:1006E000704700008C812142012801D1FFF7BEBF75
:1006F0007047012801D1FFF7C9BF7047012801D118
:10070000FFF7D2BF7047000038B505461449486965
:1007100040F001004861486900F001000090124C6F
:1007200010482060204601F0FBFC00216160A160C0
:100730008020E060216161612020A061C001E06152
:10074000204601F0D1FDEC646562022201210E20F9
:1007500001F084FFBDE838400E2001F072BF0000B8
:100760000010024044000240BC03002038B505469A
:100770001449486940F001004861486900F00100EF
:100780000090124C10482060204601F0C9FC102057
:1007900060600021A1608020E06021616161A16151
:1007A0004001E061204601F09FFDAC6465620222D9
:1007B00003210F2001F052FFBDE838400F2001F067
:1007C00040BF0000001002405800024078030020A3
:1007D00038B505461449486940F001004861486948
:1007E00000F001000090124C10482060204601F0FB
:1007F00097FC00216160A1608020E060216161615F
:100800002020A061C001E061204601F06DFD6C6315
:10081000656202220121102001F020FFBDE838406E
:10082000102001F00EBF0000001002406C000240DA
:100830002402002000B585B00E48816941F0040112
:100840008161806900F004000090022001900A4854
:1008500002900120039001A9084801F0B1FD012296
:100860001146072001F0FAFE072001F0EAFE05B06C
:1008700000BD0000001002400000211000080140EF
:1008800010B502F0C5FF00F0D1F8484C00228021DD
:10089000204601F08DFE0021AE2002F0E3FF002192
:1008A000402002F0DFFF0021812002F0DBFF002169
:1008B000CF2002F0D7FF0021A12002F0D3FF0021BA
:1008C000C82002F0CFFF0021A62002F0CBFF0021BC
:1008D000A82002F0C7FF00213F2002F0C3FF002143
:1008E000D32002F0BFFF0021084602F0BBFF002129
:1008F000D52002F0B7FF0021802002F0B3FF0021D5
:10090000D92002F0AFFF0021F12002F0ABFF00215F
:10091000DA2002F0A7FF0021122002F0A3FF00213D
:10092000DB2002F09FFF0021402002F09BFF00210E
:10093000202002F097FF0021084602F093FF0021DB
:10094000212002F08FFF0021084602F08BFF0021DA
:100950007F2002F087FF0021222002F083FF002188
:10096000084602F07FFF0021072002F07BFF0021F4
:100970008D2002F077FF0021142002F073FF002188
:10098000A42002F06FFF0021A62002F06BFF0021DF
:10099000AF2002F067FF0021AF2002F063FF204686
:1009A0000122BDE81040802101F002BE000C014090
:1009B0002DE9F0410024184DDFF86080184F687869
:1009C0000126002802D0012822D10FE00022802138
:1009D000404601F0EDFDC7F8B0614FF48061114869
:1009E00002F05AFFA0B96E70012411E0012400F05A
:1009F000E1F803280CD10C480024047002F002FF37
:100A0000C7F8B06101228021404601F0D1FD6C7031
:100A10002046BDE8F08100002D000020000C0140C0
:100A200000802142DC0700202C00002010B5064C7D
:100A300000202060642000F0E5F801202060BDE87F
:100A40001040642000F0DEB89881214270B586B075
:100A50001C4CA06940F00400A061A06900F00400F3
:100A6000019040F2011002900025039504950326A1
:100A7000059602A9144801F0A3FCA06940F0080003
:100A8000A061A06900F00800019020150290039574
:100A90000495059602A90D4801F092FCA06940F06A
:100AA0004000A061A06900F0400001901C2002906D
:100AB000039501200490059602A9054801F080FCE9
:100AC00006B070BD0010024000080140000C01405B
:100AD00000180140F0B585B0144CA06940F0080042
:100AE000A061A06900F008000090E71401970125BB
:100AF000029503950326049601A90D4801F060FCB8
:100B0000A06940F00400A061A06900F0040000901A
:100B1000019702950395049601A9064801F050FC3F
:100B200005490020086005B0F0BD0000001002403B
:100B3000000C014000080140AC8121420C480B49E7
:100B400001604FF48271416000218160C1600161E8
:100B500041614FF4007282610822C2610162416208
:100B600081620A21C16202F078B8000000380040BA
:100B70003007002003460A4600201946002A04D008
:100B80004FF47A73014802F0F9B87047300700203B
:100B900003460A4600201946002A05D00448806C06
:100BA0000068406808B101207047014802F0BEB9F2
:100BB0003007002001480078704700002C0000201A
:100BC00030B58FB0012105910904069100240794E6
:100BD00002250C950D910E9005A801F07BFE00B149
:100BE000FEE70F200090019502944FF4806003907F
:100BF00004940221684601F063FD002800D0FEE75E
:100C00000FB030BD70B5054600244FF47A7603E08E
:100C1000304600F004F8641CAC42F9D370BD70B5E6
:100C200000214FF0E0256B6900EBC000C400AA6909
:100C3000A8699042FCD003D2A2EB0002114403E069
:100C4000A3EB0006324411440246A142F0D370BD2A
:100C500010B54FF0E0240A486061A0610121032231
:100C6000881E01F0FBFC206940F00400206120692F
:100C700040F002002061206940F00100206110BDB9
:100C80003F19010070B51F4B1868016A41F211123B
:100C9000114207D1016A9210114203D1016821F07B
:100CA0000101016000BF00BF00BF00BF1A68506AA9
:100CB00080B2154CE168B1B101291AD0DB686668D1
:100CC0005D1C491E01FB0561A5685B1B03441944BB
:100CD000491C6160A0600020E060106840F00100E5
:100CE0001060606870BDA1686368411A1944616052
:100CF000F0E7D968A368C91A636801441944491C1C
:100D00006160E7E7000400201000002008B5114AE8
:100D1000D36943F00103D361D26902F0010200926A
:100D20000D4A4FF080431360516000219160D06004
:100D30001161104602F0A0F9022203211C2001F0EB
:100D40008DFC1C2001F07DFCBDE80840024802F04B
:100D5000B0B90000001002400004002010B50F4997
:100D600048600F4A1068036A41F21114234207D108
:100D7000036AA410234203D1036823F00103036034
:100D800000BF00BF00BF00BF1068426A8A60002237
:100D9000CA60016841F00101016010BD100000202F
:100DA0000004002008B5104AD36943F00203D36160
:100DB000D26902F0020200920D4A0C4B136051609E
:100DC00000219160D0601161104602F055F90322B4
:100DD00002211D2001F042FC1D2001F032FCBDE883
:100DE0000840034802F065B90010024000040040CA
:100DF0004004002010B51849C82201F1C80002F0D3
:100E00004DFF154C1548403C20604FF4E1306060C8
:100E10000020A060E0602061A0610C20606120469D
:100E200002F058F92068C16841F48071C1602068FF
:100E3000416941F0010141612068C16841F0200130
:100E4000C16020686FF04002026020680168C943F9
:100E50004906FBD4026010BD0005002000380140A7
:100E600038B500210091012804D10A4802F014FF8E
:100E7000044664B938BD6946064802F01FFF0028E1
:100E8000F8D19DF8000000F007F8641EA4B2002C11
:100E9000F1D138BDC80500200146014800F0AEBFC1
:100EA0001C0C002030B50023114C2268D56825F0B9
:100EB0004005D5600F4A156845F0080515600D4DD1
:100EC0002268083D08E01468E4432406FBD410F8C7
:100ED000014B2C605B1C9BB28B42F4D31068C04367
:100EE0000006FBD41068C0434006FBD430BD0000B0
:100EF000C00400200C380140FEE77047014801F0B3
:100F00003FB90000F0020020014801F039B90000AB
:100F100034030020014801F033B90000BC03002075
:100F2000014801F02DB9000078030020014801F0CC
:100F300027B9000024020020014801F021B9000077
:100F4000E001002030B590F840500124AC40C56B62
:100F50006C60046863604368102B04D00368996078
:100F60000068C26030BD03689A600068C16030BD2F
:100F70007047000003480168C90701D001210160E2
:100F8000704700001404014012480168490501D56A
:100F9000011501600168090502D54FF40061016087
:100FA0000168C90402D54FF48051016001688904C9
:100FB00002D54FF4005101600168490402D54FF495
:100FC000804101600168090402D54FF400410160CD
:100FD000704700001404014004480168890703D5E4
:100FE0000221016000F090B9704700001404014034
:100FF00003480168490701D50421016070470000DA
:101000001404014003480168090701D50821016063
:10101000704700001404014003480168C90601D567
:1010200010210160704700001404014010B5002039
:10103000074A0021D31C941D1154195424F8101090
:10104000401CC0B20328F7D30148801E017010BDB8
:10105000560000202DE9F05F002700200022DFF875
:1010600064C10123ACF10606554C4FF4FA5A81468F
:1010700006F10308B51E62E020B1012806D002285F
:101080000BD107E0D4F81011CAB206E0D4F80C1165
:10109000CAB202E0D4F80811CAB24B49095C9142C5
:1010A00045D13CF81010491C89B22CF8101051455C
:1010B00001D32CF810A03CF81010022901D13354B0
:1010C0006B70C82904D14FF0030B06F800B06B70A9
:1010D000B1F5C87F04D14FF0040B06F800B06B7077
:1010E000B1F5FA7F04D14FF0050B08F800B06B7032
:1010F000B1F5167F04D14FF0060B06F800B06B7007
:10110000B1F52F7F04D14FF0070B06F800B06B70DC
:10111000B1F5487F04D14FF0080B06F800B06B70B2
:10112000B1F5966F09D1092131546B7005E006F8CD
:10113000009008F800902CF81090401CC0B20328D2
:101140009AD3687860B30024305D012805D185F812
:1011500001900121642000F039F8305D032801D1AD
:1011600085F80190042801D185F80190052801D166
:1011700085F80190062801D185F8019018F804003F
:10118000072801D185F80190082801D185F8019040
:10119000092801D185F80190641CE4B2032CD3D353
:1011A0000020315C11B918F8001009B17F1CFFB2A2
:1011B0002F70401CC0B20328F3D3BDE8F09F00009D
:1011C000000023425C00002066420008074A1378B2
:1011D000012B09D10A23B0FBF3F04FF6FF7303EAAA
:1011E0004000908050805170704700004E000020F9
:1011F0000E4A1078012801D002F0F8BA5078002881
:1012000013D0918851B1491E88B290805188B0EBBB
:10121000510F01D902F0F0BA02F0E8BA401EC0B294
:101220005070002801D05088908070474E000020F8
:1012300010B502F0DBFA02490120087010BD000071
:101240004E00002010B50446204602F027FB0A4954
:10125000E0690A68101A226A90420BD394F82400BD
:1012600018B1312801D0322802D1012084F824009D
:101270000868E06110BD00000C00002010B540F6C9
:1012800098020121044800F009F803480078BDE8FD
:101290001040FFF729BA0000F00B002001704FF654
:1012A000FF7141808180002181718160C160016195
:1012B00041618161044B1B68C361026280F82410A4
:1012C000C1840185704700000C0000200148FFF731
:1012D000B9BF0000F00B00200A4901220A7000206B
:1012E00048708A70C870087148718871C871087236
:1012F00048728872C8720C31087048708870888093
:10130000704700006200002070B5FF24524D002697
:101310006E70EE702878012814D0A878012811D0BA
:1013200002F08FFB80B200EB80014FF6FF7000EA05
:101330004100A0F54C5190394FF4167291420BD8F0
:1013400064241BE0002002F0F3FC2878012800D17F
:101350002E712E70AE7016E0A0F52851C63991425C
:1013600001D8C8240AE0A0F29E71914201D801245C
:1013700004E0A0F54D70904200D80024FF2C02D06C
:10138000002002F0D5FC2A7901210220052A05D28D
:10139000DFE802F003050F2B5400297170BD642CA7
:1013A000FCD1AE71EE712E726E72AE72EE72287159
:1013B00070BD012C01D0002CFAD1A879082804D2E4
:1013C000E97984400C43EC7107E0102805D2A0F1C4
:1013D00008018C40297A0C432C72401CC0B2A871C1
:1013E0001028E5D10320287170BD012C01D0002CFC
:1013F000FAD1687A082804D2AA7A84401443AC72DD
:1014000007E0102805D2A0F108029440EA7A1443BC
:10141000EC72401CC0B268721028E5D1E8792A7AD3
:101420001044FF2804D1A87AEA7A1044FF2801D09A
:10143000297170BD69710420287170BD642C03D0BE
:10144000C82CFAD1687170BDAE71EE712E726E72D9
:10145000AE72EE72287170BD6200002010B51C4C97
:1014600001226078322802D2401C607000E02270B5
:10147000E078022802D2401CE07000E0A27060799F
:10148000012801D0022811D1114900230C31012873
:1014900015D088884FF6FF72904201D2401C888098
:1014A00063710B4920780C3100F014F82078012882
:1014B0000CD10749BDE810400C3100F00BB8E079C1
:1014C0000870A07A48708A708B80E9E710BD000030
:1014D000620000202DE9F0470022434C0026434DD6
:1014E000A4F10A0700280ED06E70BE54A654521CF8
:1014F000D2B20A2AF9D32878002872D00024385DA5
:10150000012855D059E091F800C03948012310F85E
:101510001280C4450BD100EB420991F8018099F883
:101520000190C84503D1888828B96B7003E0521C2C
:10153000D2B20A2AEBD30A2ADDD268780128DAD19E
:101540008888362825D00BDCA8B1122817D024288B
:101550001AD02D28CFD10520B854A0542B70CAE73B
:101560003F281BD048281ED06D28C4D10920B8546C
:10157000A0542B70BFE7BB54A3542B70BBE70320D0
:10158000B854A0542B70B6E70420B854A0542B7064
:10159000B1E70620B854A0542B70ACE70720B8542C
:1015A000A0542B70A7E70820B854A0542B70A2E7D2
:1015B0002E7001216420FFF709FE385D032800D159
:1015C0002E70042800D12E70062800D12E70072816
:1015D00000D12E70082800D12E70641CE4B20A2CB1
:1015E0008DD3BDE8F0870000E60B002074000020DA
:1015F000295A00080020054A002102F10A0311546B
:101600001954401CC0B20A28F9D37047DC0B0020E3
:1016100010B580280ED240290CD201F00703012416
:101620009C40E3B2074CC90804EBC1111AB10A5C33
:101630001A430A5410BD0A5CD2431A43D2430A54D7
:1016400010BD0000DC0700200020054A00214FF4F7
:1016500080631154401C80B29842FAD37047000056
:10166000DC0700200020054AFF214FF4806311545D
:10167000401C80B29842FAD370470000DC0700207B
:10168000FFF7E2BFFFF794B910B5FFF7F9F8FFF7DE
:10169000F7FFBDE81040FFF7F5BF00002DE9F84F58
:1016A00081460C461F4604F0FF0B780701D001204D
:1016B00000E0002000EBD70079084843C0B200905A
:1016C0001078203800F0FF0A002641E00C2F14D0DB
:1016D000102F19D0182F3ED120490AEBCA0001EB78
:1016E0008000855D4FF00008280612D5E1B209F0B0
:1016F000FF000122FFF78CFF13E019490AEB4A00B3
:1017000001EB8000855DEDE7164800EB0A10855D72
:10171000E8E70A9828B9E1B209F0FF000022FFF7D4
:1017200077FF6806050E641CA4B2A4EB0B00B84258
:1017300005D15C4609F101091FFA89F906E008F1B3
:10174000010808F0FF08B8F1080FCDD3761CF6B2F7
:1017500000988642BAD3BDE8F88F0000CD4C00084F
:1017600069420008DD4600082DE9FC4F0646DDE928
:101770000DABDDE90B750C46B046B01880B2019098
:10178000E0181FFA80F9AB4253D34FE080280DD9FF
:1017900001987119814202D9601984B246466019D4
:1017A000484546D8BF1C701986B23FE00D2811D0BD
:1017B000019806EB5501814202D9601984B2464670
:1017C0006019484535D80C2D0CD0102D15D0182D8A
:1017D00028D11DE0601984B246466019484528D8D2
:1017E0007F1C23E004EB0B0081B20C233A46304609
:1017F000CDF800A0FFF752FF14E004EB0B0081B21C
:1018000010233A463046CDF800A0FFF747FF09E025
:1018100004EB0B0081B218233A463046CDF800A005
:10182000FFF73CFF7F1C06EB550086B23878002896
:10183000ACD1BDE8FC8F38B50446002001252570E9
:101840000021617004EB40025180401CC0B20A28A4
:10185000F8D3002022181173401CC0B20528F9D318
:101860006161A161002022181177401CC0B2FF28DD
:10187000F9D3322204F21B1104F5A87000F0A8FB82
:1018800084F86051AA20009055231E2204F2613191
:1018900004F5607000F0CCFA38BD000010B50121ED
:1018A0000848FFF7C8FF0849002008700871487110
:1018B0008A1D1080921C108048708870C8700A3190
:1018C000088010BD1C0C0020760000202DE9F04F90
:1018D00085B08146002509F2611401264FF0060A01
:1018E0004FF0050B042709EB050898F81C000028A9
:1018F0005ED0484602F09EF8012859D000205521BC
:101900006170AA21A1700222E57003212170039069
:1019100099F80030012B23D1222D79D00EDC112D26
:1019200077D006DC012D4AD0022D60D0032D13D1D3
:1019300074E0122D7AD0212D0ED17DE0822D6AD057
:1019400006DC312D68D0322D67D0812D04D18EE098
:10195000912D6FD0922D6ED0FF20A071039627702D
:10196000BDF80C0020712078401CC1B22170891E86
:10197000E01C00F0CDFA02902278601C9DF808105F
:1019800011542278A01C9DF8091011542078801C55
:101990002070484602F04EF801280DD02278611CD4
:1019A000484602F050F898F81C00401E88F81C00C9
:1019B0006D1CEDB2FF2D96D305B0BDE8F08FD14977
:1019C0000A8804929DF8102062719DF81120A2717E
:1019D000498804919DF81010E1719DF81110217251
:1019E0006072A072CDF80CA009202070B8E7607179
:1019F0006420A0710A2004909DF81000E0719DF809
:101A0000110020726772CDF80CB008202070A7E793
:101A100018E007E00AE042E018E024E0667103966F
:101A200027709DE766710396277099E766710396A4
:101A3000277095E740E0D2E06671A671039284F8C2
:101A400000B08DE766710396277089E72020049027
:101A500062719DF81000A0719DF81100E071039172
:101A600084F800A07CE766710396277078E7A549A3
:101A70000A8804929DF8102062719DF81120A271CD
:101A8000498804919DF81010E1719DF811102172A0
:101A90006072A072CDF80CA00920207060E7607120
:101AA0009DF81010E1719DF8111021726072CDF84F
:101AB0000CB00820207053E705200021BDF8042059
:101AC000D30707D09DF8100060719DF81100A07138
:101AD0000720022193070CD59DF81030235404EB06
:101AE000000C9DF811308CF80130801CC0B2891CAC
:101AF000C9B253070CD59DF81030235404EB000CE9
:101B00009DF811308CF80130801CC0B2891CC9B21C
:101B1000130703D5401CC0B2491CC9B2D30603D574
:101B2000401CC0B2491CC9B293060CD59DF81030B8
:101B3000235404EB000C9DF811308CF80130801C0C
:101B4000C0B2891CC9B253060CD59DF8103023547D
:101B500004EB000C9DF811308CF80130801CC0B2F1
:101B6000891CC9B213060CD59DF81030235404EB20
:101B7000000C9DF811308CF80130801CC0B2891C1B
:101B8000C9B2D3050CD59DF81030235404EB000CDA
:101B90009DF811308CF80130801CC0B2891CC9B28C
:101BA00093050CD59DF81030235404EB000C9DF8E0
:101BB00011308CF80130801CC0B2891CC9B25205AA
:101BC00008D59DF80020225420449DF80120427041
:101BD000891CC9B20391207808442070C0E6052012
:101BE0000021BDF80420D30707D09DF810006071D4
:101BF0009DF81100A0710720022193070CD59DF8D4
:101C00001030235404EB000C9DF811308CF8013097
:101C1000801CC0B2891CC9B253070CD59DF8103086
:101C2000235404EB000C9DF811308CF80130801C1B
:101C3000C0B2891CC9B2130703D5401CC0B2491CED
:101C4000C9B2D30603D5401CC0B2491CC9B2930621
:101C50000CD59DF81030235404EB000C9DF8113086
:101C60008CF80130801CC0B2891CC9B253060CD557
:101C70009DF81030235404EB000C9DF811308CF8C3
:101C80000130801CC0B2891CC9B213060CD59DF866
:101C90001030235404EB000C9DF811308CF8013007
:101CA000801CC0B2891CC9B2D3050CD59DF8103078
:101CB000235404EB000C9DF811308CF80130801C8B
:101CC000C0B2891CC9B293050CD59DF810302354BD
:101CD00004EB000C9DF811308CF80130801CC0B270
:101CE000891CC9B2520508D59DF800202254204411
:101CF0009DF801204270891CC9B2039120780844E4
:101D000020702DE6880700202DE9F84F044694F84E
:101D1000600101286ED10020009004F5A870824671
:101D200000F054F90546280064D04FF00108324E07
:101D300004F5607904F11C075AE06946504600F04A
:101D400058F9002856D19DF80010484600F085F853
:101D500094F88C03012849D1D4F880038078502866
:101D600041D2C15DFF2901D2491CC155207801280B
:101D700039D1D4F88013887812281ED008DC0128C5
:101D800031D002282FD003280BD011282BD10BE003
:101D9000212828D0222819D0312824D0322822D135
:101DA00019E0087930701EE086F8048012480A793C
:101DB000801D02704979417015E086F805800E4853
:101DC0000A7908300270497941700CE00879707026
:101DD0004879B07007E00879F07007484A790A300E
:101DE000027089794170484600F082F86D1EADB2EC
:101DF000002DA2D1BDE8F88F7600002013B590F831
:101E00006011012905D1012201A900F5A87000F097
:101E100006F91CBD10B5012805D10448FFF774FF71
:101E20000248FFF753FD002010BD00001C0C0020ED
:101E300030B5039D002401600271002103E00268B7
:101E40001155641CE4B20279A242F8D8437185713D
:101E5000C17101724181017330BD70B50446207BB0
:101E600000282AD1207A0125E0B1012828D00228B3
:101E70002BD0032821D1E279206810440171E07948
:101E8000401CC0B2E07161898A1C904215D1206863
:101E9000091D801C00F052F840B32046BDE8704098
:101EA00000F026B8206841702068637902789A4271
:101EB00004D1A279914201D1257270BD017070BD2B
:101EC000206881700220207270BD2068C17061811D
:101ED0002079801F814204DC032020720020E07101
:101EE00070BD2046BDE8704000F002B8257370BD9B
:101EF0000021002203E003685A54491CC9B2037947
:101F00008B42F8D8C271027242810273704700009E
:101F100070B5FF23FF22084D05F5807605E010F827
:101F2000014B54402A5D5A40335D491E4C1CF6D18A
:101F300042EA032070BD0000663E000870B5FF2332
:101F4000FF22084D05F5807605E010F8014B54405E
:101F50002A5D5A40335D491E4C1CF6D142EA0320EB
:101F600070BD0000663E000802480168491C01601F
:101F7000704700003400002010B50023012904D070
:101F8000022902D00123184610BD002404704170BC
:101F90000249096841608260F5E7000034000020D2
:101FA000094942680B689A1A83689A4207D301224A
:101FB00002704278022A04D10968416001E00021E0
:101FC000017000787047000034000020C08870471E
:101FD00010B500230024047044808480C4800281F2
:101FE000C16003E0C168CC545B1C9BB29342F9D33F
:101FF00010BDC288002A10D04388C268D25C0A7023
:1020000041880289491CB1FBF2F302FB13114180A4
:10201000C188491EC180002070470120704770B5FB
:1020200000231AE0C4880589AC4203D30121017062
:10203000012070BD8688C568CC5CAC558488058954
:10204000641CB4FBF5F605FB16448480C488641C4C
:10205000C4805B1C9BB2521E92B2002AE2D10020C7
:1020600070BD0170FF2141708170C170002101714C
:102070004171704701788170C17801700021417110
:1020800070470000244BFF2100201A89052A02D244
:10209000521C1A8101E0188119705A890A2A02D249
:1020A000521C5A8101E0588159709A89322A02D211
:1020B000521C9A8102E098819970D970DA89642A59
:1020C00002D2521CDA8101E0D88119711A8AB2F564
:1020D000FA7F02D2521C1A8201E018825971598A81
:1020E0000122642908D2491C89B25982322901D2BD
:1020F0009A7102E0987100E05882998AC82908D242
:10210000491C89B29982642901D2DA717047D87169
:102110007047988270470000380000207047000028
:1021200010B5002825D001680A6822F001020A6073
:1021300002680021116002685160026891600268C3
:10214000D1600D4B02681A441423B2FBF3F29200E3
:1021500002640A4BC363012494405C608162C162E3
:1021600001634163816380F8211080F82010002012
:1021700010BD012010BD0000F8FFFDBF00000240AF
:102180002DE9F05FC16B0A6801680B68046C4FF0C1
:10219000040A0AFA04FA4E4D4E4E4F4FDFF83CC186
:1021A000DFF83C81DFF83C911AEA020F31D05FEA98
:1021B000437A2ED50A68920603D40A6822F00402F4
:1021C0000A600168A94201D1042119E0B14201D19C
:1021D000402115E0B94202D14FF4806110E0614521
:1021E00002D14FF480410BE0414502D14FF48021F0
:1021F00006E0494502D14FF4800101E04FF08061D3
:10220000334A083A5160C16A00295FD0BDE8F05FE7
:1022100008474FF0020E0EFA04FE1EEA020F4FF0BE
:10222000000A4FF0010B35D05FEA837E32D50A6891
:10223000920605D40A6822F00A020A6080F821B0EA
:102240000168A94201D1022119E0B14201D1202146
:1022500015E0B94202D14FF4007110E0614502D19E
:102260004FF400510BE0414502D14FF4003106E03C
:10227000494502D14FF4001101E04FF00071144ABA
:10228000083A516080F820A0816A00291ED0BDE87C
:10229000F05F08470825A540154217D01A0715D545
:1022A0000A6822F00E020A6090F84010C26B0BFA26
:1022B00001F15160C0F838B080F821B080F820A05A
:1022C000016B002902D0BDE8F05F0847BDE8F09F30
:1022D000080002401C00024030000240440002405E
:1022E000580002406C00024030B5002827D0001D85
:1022F000144A50F8041C14230A44B2FBF3F292006F
:10230000C263114A8263022242770A6843F6F0737D
:102310009A43D0E900342343D0E902452C432343B8
:1023200004692343446923438469234313430B60B3
:1023300000214163012242770177002030BD012056
:1023400030BD0000F8FFFDBF0000024070B504463C
:10235000002594F8200001280CD0012084F82000EA
:1023600094F821600020012E06D084F82000022578
:10237000284670BD022070BD022684F82160A0634B
:102380002068066826F0010606602046FEF7DAFDA2
:10239000E06A28B12068016841F00E01016009E09F
:1023A0002068016821F0040101602068016841F0A3
:1023B0000A0101602068016841F001010160D7E76E
:1023C0002DE9F84F00240023DFF8C4914FF00F08E7
:1023D00009F1040A0AF1040B0BF1040ED1E0012704
:1023E000A7403A40BA4275D1DFF8A8C14D68A5EBC5
:1023F0000C0665452BD00DDC032D34D005DC35B340
:10240000012D19D0022D2FD11BE0112D16D0122D28
:102410002AD119E0B6F5881F19D006DCB6F5803F41
:1024200015D0B6F5801F1FD111E0B6F5001F0ED0F4
:10243000B6F5041F18D10AE0CB6815E0CB681B1D68
:1024400012E0CB6808330FE0CB680C330CE08B68EC
:1024500023B1012B04D00823476105E0042303E0E6
:102460000823076100E00023FF2A01D8054601E0A8
:1024700000F1040502D84FEA840603E0A4F108063F
:102480004FEA86062F6808FA06FC27EA0C0703FACB
:1024900006F647EA06072F604D68ED0070D53E4D01
:1024A000AE6946F00106AE61AD6905F00105009523
:1024B0003A4D24F003067719BE68A5072D0F08FAD8
:1024C00005FC26EA0C06DFF8D8C0604503D14FF0C2
:1024D000000C17E054E0DFF8CCC0604502D14FF0AB
:1024E000010C0FE0DFF8C0C0604502D14FF0020CD4
:1024F00008E0DFF8B8C0604502D14FF0030C01E0FE
:102500004FF0040C0CFA05FC4CEA060CC7F808C0A6
:102510004D68ED0305D5D9F800501543C9F80050B2
:1025200004E0D9F800509543C9F800504D68AD0358
:1025300005D5DAF800501543CAF8005004E0DAF87F
:1025400000509543CAF800504D68ED0205D5DBF800
:1025500000501543CBF8005004E0DBF800509543E1
:10256000CBF800504D68AD0205D5DEF8005015439C
:10257000CEF8005004E0DEF800509543CEF800504D
:10258000641C0A6832FA04F57FF429AFBDE8F88FBD
:102590000004014000001110001002400000014042
:1025A00000080140000C01400010014000140140EF
:1025B000002A01D0016170470904016170470000E1
:1025C00001488068704700000000002002488168D0
:1025D00002781144816070470000002010B5064861
:1025E000016841F010010160052000F057F800F08B
:1025F00027F8002010BD00000020024070B50446FE
:102600000D4D4FF47A712878B1FBF0F00B49096851
:10261000B1FBF0F000F01CFD08B1012070BD102CE2
:1026200007D200222146501E00F018F86C600020EE
:1026300070BD012070BD00000000002030000020AF
:102640007047002809DB00F01F020121914040097A
:10265000800000F1E020C0F800117047F0B40D4692
:102660000D4B1B68C3F30223C3F10704042C00D9EC
:102670000424191D072901D2002300E0DB1E0126D6
:1026800006FA04F1491E294099409E40761E1640E4
:102690003143F0BC01F099B80CED00E000F0070107
:1026A000054A10684FF6FF03184040EA012003492D
:1026B00008431060704700000CED00E00000FA05D0
:1026C0002DE9F04704460D46002C17D0DFF8308185
:1026D000D8F8000000F00700A84211D2D8F8000096
:1026E00020F007002843C8F80000D8F8000000F0E8
:1026F0000700A84204D00120BDE8F0870120FBE7D5
:102700002068404E810712D5400703D5706840F419
:10271000E06070602078000703D5706840F4605076
:1027200070607068A16820F0F00008437060207845
:10273000C0072CD06068012806D0022809D0316873
:1027400089070BD40120D7E73168890306D401201B
:10275000D2E73168890101D40120CDE7716821F009
:10276000030101437160FFF72BFF074641F28839EF
:1027700006E0FFF725FFC01B484501D90320BBE752
:102780007068616800F00C00B0EB810FF1D1D8F8EF
:10279000000000F00700A8420ED9D8F8000020F091
:1027A00007002843C8F80000D8F8000000F0070030
:1027B000A84201D001209FE72078400705D5706826
:1027C000E16820F4E060084370602078000706D5D7
:1027D0007068216920F4605040EAC100706000F028
:1027E0003FF87168084AC1F30311515CC8400749BA
:1027F000086007480068FFF701FF00207CE7000041
:1028000000200240001002404E3E00083000002030
:1028100004000020014800687047000030000020DC
:1028200000B5FFF7F7FF04494968044AC1F30221E4
:10283000515CC84000BD0000001002405E3E000830
:1028400000B5FFF7E7FF04494968044AC1F3C22114
:10285000515CC84000BD0000001002405E3E000810
:1028600085B014A090E80E00C068CDE90223019164
:10287000049014A000680090134B5968134801F0AD
:102880000C02042A10D0082A0ED101A8C1F38342F9
:10289000805CC9030AD55968C1F340411DF8011095
:1028A0000A4A5043B0FBF1F005B07047084948436D
:1028B000FAE7000002030405060708090A0B0C0DDD
:1028C0000E0F1010010200000010024000127A00EA
:1028D00000093D002DE9F84F0446002C0ED0207869
:1028E000D94DC0075ED06868C0F3810001280BD0C5
:1028F0006868C0F38100022803D00CE00120BDE825
:10290000F88F6868C00306D5286880034AD56068D8
:10291000A8BB0120F3E76068B0F5803F11D0A8B1F3
:10292000B0F5A02F1BD0286820F4803028602868DC
:1029300020F480202860606830B3FFF741FE06462F
:102940001EE0286840F480302860F4E7286820F40E
:1029500080302860286820F480202860EBE7286811
:1029600040F480202860286840F480302860E2E746
:10297000FFF726FE801B642802D90320BFE711E081
:1029800028688003F4D50DE0FFF71AFE064606E03E
:10299000FFF716FE801B642801D90320AFE72868E3
:1029A0008003F5D42078DFF8A48280074FF0010A75
:1029B0004FF0000945D5686810F00C0F07D0686823
:1029C000C0F38100022812D16868C0030FD42868C0
:1029D000800704D52069012801D001208FE72868ED
:1029E000616920F0F80040EAC100286029E0206910
:1029F000B8B1C8F800A0FFF7E3FD064606E0FFF710
:102A0000DFFD801B022801D9032078E728688007B2
:102A1000F5D52868616920F0F80040EAC100286017
:102A20000FE0C8F80090FFF7CBFD064606E0FFF781
:102A3000C7FD801B022801D9032060E728688007B2
:102A4000F5D42078000726D58148A16999B1C0F84E
:102A500000A0FFF7B5FD064606E0FFF7B1FD801BBD
:102A6000022801D903204AE7686A8007F5D50120CA
:102A700000F0E2FB0FE0C0F80090FFF7A1FD064672
:102A800006E0FFF79DFD801B022801D9032036E7F1
:102A9000686A8007F5D42078400773D50026E86976
:102AA000C00008D4E86940F08050E861E86900F0AF
:102AB000805000900126DFF89CB1DBF80000C005D3
:102AC00014D4DBF8000040F48070CBF80000FFF76E
:102AD00077FD074606E0FFF773FDC01B642801D9A8
:102AE00003200CE7DBF80000C005F4D5E0680128FE
:102AF00012D0B0B105281DD0286A20F0010028624C
:102B0000286A20F004002862E06841F2883B28B37C
:102B1000FFF756FD07461DE0286A40F001002862D5
:102B2000F2E7286A20F001002862286A20F00400F9
:102B30002862E9E7286A40F004002862286A40F029
:102B400001002862E0E7FFF73BFDC01B584501D9B3
:102B50000320D4E6286A8007F5D50DE0FFF730FDA5
:102B6000074606E0FFF72CFDC01B584501D903209E
:102B7000C5E6286A8007F5D4012E03D1E86920F064
:102B80008050E861E069A0B36968C1F3810102295E
:102B900046D0022805D0C8F86090FFF711FD044622
:102BA0003AE0C8F86090FFF70BFD064606E0FFF735
:102BB00007FD801B022801D90320A0E628688001B8
:102BC000F5D4206AB0F5803F05D16868A16820F48B
:102BD000003008436860D4E908010843696821F4BB
:102BE000741108436860C8F860A0FFF7E9FC044668
:102BF00007E026E0FFF7E4FC001B022801D90320D0
:102C00007DE628688001F5D51BE0FFF7D9FC001BA5
:102C1000022801D9032072E628688001F5D410E06B
:102C200001280CD06868226A00F48031914204D1F6
:102C3000616A00F47010884203D001205FE6012031
:102C40005DE600205BE6000000100240000042420A
:102C50008004424200700040704770B50446002C6A
:102C600006D04FF4005694F85100002510B106E04C
:102C7000012070BD84F85050204600F035F8022045
:102C800084F851002068016821F040010160D4E916
:102C900001010843D4E90312114308436169084361
:102CA000218B01F400710843E1690843216A08435C
:102CB000A16A084321680860A069042101EA104064
:102CC00021684860A06AB04202D12168E06A0861C8
:102CD0002068C16921F40061C1616565012084F843
:102CE0005100002070BD000030B585B001681F485C
:102CF000814238D11E48816941F0080181618169B2
:102D000001F008010091C16941F48041C161C069CD
:102D100000F4804000904FF420400190022402947F
:102D200003200490134D01A92846FFF749FB6103D6
:102D3000019102940021039101A92846FFF740FB6D
:102D4000012280212846FFF733FC802101910121D7
:102D5000029101A92846FFF733FB0748FDF706FD5E
:102D60000548FDF7D1FC05B030BD0000003800403B
:102D700000100240000C0140300700202DE9F84F00
:102D800004468A4693461D46002694F850000128C2
:102D90000DD04FF0010984F85090FFF711FC074661
:102DA00094F85100B046012804D00226B7E0022072
:102DB000BDE8F88FBAF1000F1CD05FEA0B0019D004
:102DC000032084F85100C4F85480C4F830A0A4F85B
:102DD00034B0A4F836B0C4F83880A4F83C80A4F825
:102DE0003E80C4F84480C4F84080A068B0F5004F2D
:102DF00002D006E0012692E02068016841F480419B
:102E00000160A06A4FF4005A504509D1206801685A
:102E100021F4005101602068016841F40051016013
:102E200020680168490603D4016841F0400101604F
:102E3000E068B0F5006F05D0606878B3BBF1010FB2
:102E40002DD04DE0606810B1BBF1010F20D1206B97
:102E500021680088C860206B801C2063E08E401EC3
:102E6000E08615E020688168890709D5216B09880B
:102E7000C160206B801C2063E08E401EE08607E06E
:102E8000FFF79EFBC01BA84201D3681C04D11DB1F3
:102E9000E08E0028E6D126E0032640E0FFE7206B25
:102EA000216800780873206B401C2063E08E401E70
:102EB000E08615E020688168890709D5216B0978CB
:102EC0000173206B401C2063E08E401EE08607E00B
:102ED000FFF776FBC01BA84201D3681C16D1ADB129
:102EE000E08E0028E6D1A06A504504D12068016830
:102EF00041F4805101603A462946204600F030FAFC
:102F000008B120206065A06810B105E0032606E046
:102F10002068C16880680090606D00B1012684F867
:102F2000519084F85080304642E700002DE9F0418E
:102F30000446002594F85000012809D0012784F8A0
:102F4000507094F851000026012804D0022557E063
:102F50000220BDE8F08189B182B1032084F85100DC
:102F600066652163A286E286A66366642664A687F8
:102F7000E687A068B0F5004F02D006E001253FE0EB
:102F80002068016841F480410160A06AB0F5005FEB
:102F900009D12068016821F40051016020680168AE
:102FA00041F400510160A16C1748C862A16C174838
:102FB0008862A16C16480863A06C4663E38E2268A1
:102FC000216B0C32A06CFFF7C1F938B1606D40F095
:102FD00010006065012584F8517011E020680168D7
:102FE000490603D4016841F040010160206841684E
:102FF00041F0200141602068416841F002014160D8
:1030000084F850602846A4E7F3320008FD32000837
:10301000D132000800680549884205D104490320DF
:103020000870044900200860704700000038004024
:103030002C000020AC81214200680349884202D163
:103040000249022008707047003800402C00002020
:1030500010B5401EB0F1807F01D3012010BD4FF0AC
:10306000E02460610F21601700F0AFFB0020A06139
:1030700007202061002010BD10B50446002C03D0AD
:1030800094F83D0010B107E0012010BD002084F845
:103090003C00204600F00CF8022084F83D00211D81
:1030A000206800F02DFA012084F83D00002010BDBA
:1030B00070470168CA6842F00102CA60006881680E
:1030C00001F00701062903D0016841F00101016008
:1030D0000020704770B50446002C04D094F83900E5
:1030E000002510B106E0012070BD84F8385020465C
:1030F00000F022F8242084F839002068C16821F407
:103100000051C160204600F031FA2068016921F4C5
:10311000904101612068416921F02A0141612068E4
:10312000C16841F40051C160E563202084F8390092
:1031300084F83A00002070BD2DE9F04786B00546BE
:10314000364928680027364C364E4FF002084FF0BB
:1031500001094FF0030A88422AD1A06940F0040017
:10316000A061A06900F004000190A06940F48040D3
:10317000A061A06900F48040019048150290CDF84C
:103180000C80CDF81090CDF814A002A93046FFF7BE
:1031900017F920150290039702A93046FFF710F99E
:1031A0002520FFF74EFA022200212520FFF756FACC
:1031B0001D49286888422DD1A06940F00400A06113
:1031C000A06900F004000190E06940F40030E06183
:1031D000E06900F40030019004200290CDF80C80EA
:1031E000CDF81090CDF814A002A93046FFF7E8F80A
:1031F00008210291039702A93046FFF7E1F8262043
:10320000FFF71FFA022200212620FFF727FA0748BE
:10321000FDF7DEFA06B0BDE8F08700000038014097
:10322000001002400008014000440040D805002082
:10323000FEE7FEE77047704708B507494FF4FA52BA
:103240000968B1FBF2F14143009100BF0098411EB3
:103250000091FAD208BD0000300000202DE9F047AF
:103260000746002600244FF4FA784FF001090025A4
:1032700003E06D1CADB2454504D83878FDF722FA5D
:103280000028F6D02820FDF7CAFC3878FDF71AFA96
:1032900001280BD0C4F1070009FA00F08643641C32
:1032A000E4B2082CE3D33046BDE8F087002503E004
:1032B0006D1CADB2454504D83878FDF703FA0128F6
:1032C000F6D0C4F1070009FA00F0C0B20643E6E701
:1032D00010B5406A01684A6822F003024A60416DF5
:1032E00041F010014165012180F85110FFF7B4FC55
:1032F00010BD10B5406AFFF79FFE10BD38B50546FA
:103300006C6AFFF75DF9024628680068800623D4DE
:103310002068416821F0200141602068416821F067
:10332000020141606421204600F01AF818B1606D76
:1033300040F020006065A068002118B92068C268CC
:1033400080680090E186012084F85100606D18B11A
:103350002046FFF781FC38BD2046FFF75BFE38BDF5
:1033600038B504460B46009200228021204600F02A
:1033700009F828B1606D40F020006065032038BD79
:10338000002038BD2DE9F04104460E4617461D4683
:10339000DDF8188008E0681C06D0FFF711F9A0EBF3
:1033A0000800A8420BD255B12068806836EA0000B8
:1033B0002FD00020B842EED10020BDE8F081206877
:1033C000416821F0E00141606068B0F5827F0BD177
:1033D000A068B0F5004F02D0B0F5806F04D120682E
:1033E000016821F040010160A06AB0F5005F09D1D9
:1033F0002068016821F4005101602068016841F4EF
:1034000000510160012050346070002020700320C2
:10341000D3E70120CEE7704710B5FFF7D7F8FEF7E6
:10342000A3FD02480168491C016010BD0C0000208A
:103430000D48016841F00101016041680B4A1140EB
:10344000416001680A4A11400160016821F480214D
:103450000160416821F4FE0141604FF41F01816069
:103460000449C00308607047001002400000FFF8E4
:10347000FFFFF6FE08ED00E010B510480068016996
:10348000C943C90716D1C168C943C90712D1891EEA
:1034900001610B4CE068401CE060FEF7F3FDFDF7B6
:1034A000D9FDFDF7DBFFFDF7A3FE20880A2802D235
:1034B000401C208010BD0020208010BD0004002092
:1034C000100000200C4800680169C943C9070ED1EB
:1034D000C168C943C9070AD1891E016107498869C2
:1034E000401C88614888642802D2401C488070478C
:1034F0000020488070470000400400201000002099
:10350000F0B50268164C174D174E4FF08047A04299
:1035100005D0B84203D0A84201D0B04203D122F076
:1035200070034A681A43A04205D0B84203D0A842AB
:1035300001D0B04203D122F44073CA681A434B69E8
:1035400022F080021A4302608A68C2620A688262BC
:10355000A04201D10969016301214161F0BD000070
:10356000002C014000040040000800402DE9F0411B
:10357000044620680169E26821F440511143016169
:10358000A16820690143606901432068C26841F273
:103590000C639A430A43C26020684169A26921F41E
:1035A00040711143416135492068642532268842C3
:1035B00032D1FFF745F900EBC00101EB0010616863
:1035C0006FF018078900B0FBF1F2B2FBF5F2B0FB27
:1035D000F1F37A4303EB8202B0FBF1F306EB021244
:1035E000B2FBF5F2B3FBF5F302F0F00202EB0312CB
:1035F000B0FBF1F3B0FBF1F0B0FBF5F0784303EB77
:10360000800006EB0010B0FBF5F0216800F00F0021
:1036100010448860BDE8F081FFF702F900EBC001BB
:1036200001EB001061686FF018078900B0FBF1F240
:10363000B2FBF5F2B0FBF1F37A4303EB8202B0FB8D
:10364000F1F306EB0212B2FBF5F2B3FBF5F302F075
:10365000F00202EB0312B0FBF1F3B0FBF1F0B0FBB0
:10366000F5F0784303EB800006EB0010B0FBF5F0BB
:10367000216800F00F0010448860CBE7003801405B
:1036800008B51C4800680168C943C90702D1016830
:10369000416800910168C943890702D40168416803
:1036A00000910168C943490702D40168416800914B
:1036B0000168C943090702D40168416800910168A3
:1036C000C943C90605D4C168C90602D50168416865
:1036D00000910168C94389060AD4C068800607D5ED
:1036E00005480068009001226946044800F0FEFA8F
:1036F00008BD0000C004002004380140C8050020B7
:10370000F8B52E4D286801684FF00006C943C90777
:1037100002D10168416800910168C943890702D458
:103720000168416800910168C943490702D40168F2
:10373000416800910168C943090702D401684168E2
:1037400000910168C943C9062DD4C168C9062AD5AC
:10375000016840680090696B184C09687434E0880F
:103760004968401A80B22188814202D2401A6080A2
:1037700000E06680608898B915E000962188A2680C
:10378000525C0092E288491CB1FBF2F302FB131178
:103790002180401E608001226946094800F0A6FA97
:1037A00060880028E9D128680168C943890604D4E3
:1037B000C068800601D503480068F8BDD805002020
:1037C0002007002004440040FEE70907090E0028F6
:1037D00004DB00F1E02080F80014704700F00F00D7
:1037E00000F1E02080F8141D70470000014900201E
:1037F00008607047A081214201490120086070479C
:10380000A08121420A20401EC0B2FCD270470000B5
:1038100030B585B01048816941F008018161806947
:1038200000F0080000904FF48250019001240294AF
:10383000039403200490094D01A92846FEF7C0FD1A
:1038400007490C60002280212846FEF7B1FEFDF7F3
:1038500075F905B030BD000000100240000C0140B9
:103860009881214270B50125064C002902D0C4F888
:10387000B05102E00021C4F8B01100F005F8C4F81E
:10388000B05170BD008021420249087001210148F9
:10389000FDF770B92D000020FDF77AB92DE9FC473E
:1038A0000446002594F824003227604E4FF00208A9
:1038B000032829D004DC012807D0022811D111E007
:1038C0002F287DD030280CD19DE02078FCF716FF02
:1038D00020780121FCF700FF30686061A76184F85F
:1038E00024809EE060693168081AA16988420AD381
:1038F00020780021FCF7F0FE306860611420A061A0
:10390000032084F824008CE060693168081AA169FA
:10391000884218D320780121FCF7DEFE2078FCF7DE
:10392000E8FE2820FDF77BF92078FCF7CBFE4FF06E
:10393000300948B184F824902078FCF7DFFE207825
:103940000121FCF7C9FE6CE04FF4FA7603E06D1C30
:10395000ADB2B54204D82078FCF7B4FE0028F6D00A
:10396000002503E06D1CADB2B54204D82078FCF709
:10397000A9FE0128F6D02046FFF770FC05468DF819
:1039800000002046FFF76AFC07468DF8010020463C
:10399000FFF764FC06468DF802002046FFF75EFC48
:1039A00080468DF803002046FFF758FC8DF8040090
:1039B000E91906EB08021144C9B2884217D100E0A8
:1039C00018E007EB0520A08008EB0620608005EBDF
:1039D0008500400000F028FA206106EB86004000D8
:1039E00000F022FAA0602F2084F82400A4E784F8D5
:1039F0002490A1E70120A071E08C401CE0843120DC
:103A000084F824000DE084F80680208D401C208579
:103A10004FF6FF706080A0800548A060206184F8A8
:103A2000247094F82400BDE8FC8700000C000020FE
:103A300000FF7F47014600200978012900D10220BC
:103A40007047FDF71FB90B4611460078012802D1D7
:103A50001846FDF727BA704708B58848816941F0D4
:103A600001018161806900F001000090844948688B
:103A700020F0E06040F000704860FEF7AFFD4FF4CA
:103A8000E010FDF79DF8FDF7E3F8FDF723F8FCF7EC
:103A9000DDFFFCF7CDFDFCF7CDFEFDF7ABF940F205
:103AA000CF24214640F2E730FDF730F9214663206C
:103AB000FDF778F94FF4FA742046FDF7A3F8FDF707
:103AC000B7FBFDF7B3FAFDF7DFFDFDF705FCFDF7EA
:103AD00091FDFDF7D3FBFDF7E1FE22460221694887
:103AE000FEF74AFA00216848FEF7BBFADFF89CB1FE
:103AF0000025FF27DFF89881634E4FF002094FF051
:103B0000030A01247078FF2806D0FDF7BBFD18B921
:103B100031797078FCF710FD0120FDF7A1F9012043
:103B2000FEF778F9FDF7D2FB5648FEF739FA01287F
:103B300006D15849D1F8AC0140B10020C1F8AC0120
:103B40009BF80000C143C90702D005E00120F5E75A
:103B500020F001008BF800003078B0B1012832D09D
:103B6000022858D00328CDD17078032800D03571B1
:103B700086F801A03079C0B3012871D0FF28C1D1E7
:103B8000707998B3012875D173E0707810B1FF286F
:103B90000CD035717570307950B101280AD0FF28EA
:103BA000B0D1707958B1012809D106E03571F1E73B
:103BB0003471A7E774713771A4E7F4703571324836
:103BC000FEF758FA9EE77078012800D035717470BE
:103BD000307960B101280CD0FF2893D17079B0B151
:103BE00001280FD0022812D10FE037E042E03471F3
:103BF00088E798F80100012884D188F80150747191
:103C000037717FE786F8039001E086F803901E483D
:103C1000FEF730FA76E77078022800D0357186F822
:103C20000190307940B1012808D0FF28C1D17079C6
:103C300078B101280DD10AE0347163E798F80100EA
:103C40000128B6D188F80150747137715AE786F8A7
:103C500003A00D48FEF70EFA54E701E0347151E776
:103C600098F801000128A4D188F8015074713771C7
:103C700048E7F4700448FEF7FDF943E700100240FE
:103C800000000140AC0F0020850000203A00002019
:103C90005600002000802142C088704710B50023E4
:103CA0000024047044808480C4800281C16002E0EA
:103CB000CC545B1C9BB29342FAD310BDC288002A3D
:103CC00012D04388C268D25C0A7041880289491CBC
:103CD000B1FBF2F302FB1311418072B6C188491E99
:103CE000C18062B6002070470120704770B5002384
:103CF0001AE0C4880589AC4203D301210170012078
:103D000070BD8688C568CC5CAC5584880589641C08
:103D1000B4FBF5F605FB16448480C488641CC4809B
:103D20005B1C9BB2521E92B2002AE2D1002070BDF1
:103D3000FDF714B870470000F0B59BB01C222BA112
:103D400005A8FCF7EBFA3C210CA8FCF719FB0C25A5
:103D50000024CDE9015405AE2B4680222946204699
:103D600000960394FDF700FDCDE901540C23802259
:103D70001821002000960394FDF7F6FCCDE90154CC
:103D80000C2380222421002000960394FDF7ECFCF4
:103D9000CDE901540C2380223021002000960394A9
:103DA000FDF7E2FC184E19A10CA873783278FCF7E5
:103DB00031FACDE901540CAF0C23802219460020C2
:103DC00000970394FDF7D0FCB28814A10CA8FCF76F
:103DD00021FACDE901540C238022182100200097FC
:103DE0000394FDF7C1FC1BB0F0BD00002020202093
:103DF00020202020202020202020202020202020C3
:103E000020202020000000006E0000204144443AA1
:103E1000256420434D443A25640000005245504536
:103E200041543A2564000000B0FA80F310FA03F21E
:103E3000C3F19D030AD0D90501EB1220530638BF08
:103E4000704700F1010008BF20F00100704700003A
:103E5000000000000000010203040607080900003A
:103E600000000102030400C1814001C0804101C083
:103E7000804100C1814001C0804100C1814000C13A
:103E8000814001C0804101C0804100C1814000C12A
:103E9000814001C0804100C1814001C0804101C01A
:103EA000804100C1814001C0804100C1814000C10A
:103EB000814001C0804100C1814001C0804101C0FA
:103EC000804100C1814000C1814001C0804101C0EA
:103ED000804100C1814001C0804100C1814000C1DA
:103EE000814001C0804101C0804100C1814000C1CA
:103EF000814001C0804100C1814001C0804101C0BA
:103F0000804100C1814000C1814001C0804101C0A9
:103F1000804100C1814001C0804100C1814000C199
:103F2000814001C0804100C1814001C0804101C089
:103F3000804100C1814001C0804100C1814000C179
:103F4000814001C0804101C0804100C1814000C169
:103F5000814001C0804100C1814001C0804101C059
:103F6000804100C1814000C0C101C30302C2C60636
:103F700007C705C5C404CC0C0DCD0FCFCE0E0ACAA1
:103F8000CB0BC90908C8D81819D91BDBDA1A1EDEF1
:103F9000DF1FDD1D1CDC14D4D515D71716D6D212A1
:103FA00013D311D1D010F03031F133F3F23236F6B1
:103FB000F737F53534F43CFCFD3DFF3F3EFEFA3A61
:103FC0003BFB39F9F83828E8E929EB2B2AEAEE2EF1
:103FD0002FEF2DEDEC2CE42425E527E7E62622E261
:103FE000E323E12120E0A06061A163A3A26266A6B1
:103FF000A767A56564A46CACAD6DAF6F6EAEAA6A21
:104000006BAB69A9A86878B8B979BB7B7ABABE7E70
:104010007FBF7DBDBC7CB47475B577B7B67672B220
:10402000B373B17170B050909151935352929656B0
:104030005797559594549C5C5D9D5F9F9E5E5A9AE0
:104040009B5B99595898884849894B8B8A4A4E8E70
:104050008F4F8D4D4C8C44848545874746868242E0
:104060004383418180400021426384A5C6E708293B
:104070004A6B8CADCEEF31107352B594F7D6391828
:104080007B5ABD9CFFDE62432001E6C7A4856A4BD4
:104090002809EECFAC8D53721130D7F695B45B7A08
:1040A0001938DFFE9DBCC4E586A740610223CCED34
:1040B0008EAF48690A2BF5D4B79671503312FDDCE8
:1040C000BF9E79583B1AA687E4C522036041AE8F94
:1040D000ECCD2A0B684997B6D5F4133251709FBEC8
:1040E000DDFC1B3A597888A9CAEB0C2D4E6F80A1D4
:1040F000C2E304254667B998FBDA3D1C7F5EB190A8
:10410000F3D235147756EACBA8896E4F2C0DE2C353
:10411000A08166472405DBFA99B85F7E1D3CD3F287
:1041200091B0577615344C6D0E2FC8E98AAB4465B3
:104130000627C0E182A37D5C3F1EF9D8BB9A755467
:104140003716F1D0B3922E0F6C4DAA8BE8C9260713
:104150006445A283E0C11F3E5D7C9BBAD9F8173647
:10416000557493B2D1F000102030405060708191AE
:10417000A1B1C1D1E1F112023222524272629383A3
:10418000B3A3D3C3F3E32434041464744454A5B533
:104190008595E5F5C5D53626160676665646B7A743
:1041A0009787F7E7D7C74858687808182838C9D9D3
:1041B000E9F98999A9B95A4A7A6A1A0A3A2ADBCBE3
:1041C000FBEB9B8BBBAB6C7C4C5C2C3C0C1CEDFD73
:1041D000CDDDADBD8D9D7E6E5E4E3E2E1E0EFFEF83
:1041E000DFCFBFAF9F8F9181B1A1D1C1F1E11000AD
:1041F0003020504070608393A3B3C3D3E3F3021223
:10420000223242526272B5A59585F5E5D5C53424B2
:10421000140474645444A7B78797E7F7C7D72636C2
:10422000061666764656D9C9F9E99989B9A9584852
:10423000786818083828CBDBEBFB8B9BABBB4A5A62
:104240006A7A0A1A2A3AFDEDDDCDBDAD9D8D7C6CF2
:104250005C4C3C2C1C0CEFFFCFDFAFBF8F9F6E7E02
:104260004E5E2E3E0E1E000000000000000000000A
:104270000000000000000000003F400000000000BF
:104280000000003000400030004000000009000B3A
:10429000C03D000BC03D00090018C024407FE02253
:1042A0004031800000180024C01B000D8032400106
:1042B0008003801C4027401C8007400040100060A5
:1042C0000000000000000000000000000000001FCF
:1042D00080204040200000402020401F800000003F
:1042E00000090006001F8006000900000004000409
:1042F000003F800400040000000010006000000087
:104300000000000000040004000400040004000099
:10431000000000004000000000000000000020013C
:10432000C006003800400000001F802040204020D0
:10433000401F800000000010403FC000400000000F
:104340000018C02140224024401840000010802066
:1043500040244024401B80000002000D0011003F5B
:10436000C0014000003C80244024402440238000C1
:10437000001F80244024403440038000003000208F
:104380000027C03800200000001B80244024402467
:10439000401B8000001C0022C0224022401F8000E1
:1043A00000000000000840000000000000000000C5
:1043B000000460000000000000000004000A00117A
:1043C00000208040400900090009000900090000A0
:1043D0000000004040208011000A00040018002066
:1043E0000023402400180000001F8020402740299F
:1043F000401F400000004007C039000F0001C0000E
:104400004020403FC0244024401B8000001F8020EB
:1044100040204020403080000020403FC02040200D
:10442000401F80000020403FC024402E4030C0008C
:104430000020403FC024402E00300000000F00103C
:1044400080204022403380020020403FC00400040E
:10445000003FC02040204020403FC020402040007E
:10446000000060202020203FC02000200020403F8E
:10447000C024400B0030C0204020403FC0204000FE
:1044800040004000C03FC03C0003C03C003FC000B3
:104490000020403FC00C4023003FC020001F802070
:1044A00040204020401F80000020403FC024402486
:1044B00000180000001F802140214020E01FA000C4
:1044C0000020403FC02440260019C0004018C024EE
:1044D000402440224031800000300020403FC02076
:1044E000403000000020003F80004000403F80201E
:1044F0000020003E0001C0070038002000380007FF
:10450000C03C0007C038000000204039C006003918
:10451000C0204000002000384007C0384020000084
:1045200000304021C02640384020C000000000007C
:10453000007FE0402040200000000070000C0003DD
:1045400080004000000000402040207FE00000008C
:1045500000000020004000200000000000001000CB
:1045600010001000100010001000000000400000BB
:104570000000000000000002800540054003C0006C
:104580004020003FC00440044003800000000003BE
:1045900080044004400640000000000380044024E2
:1045A000403FC0004000000380054005400340003C
:1045B00000000004401FC0244024402000000002EE
:1045C000E0055005500650042020403FC004400440
:1045D0000003C000400000044027C000400000006D
:1045E0000000100010041027E00000000020403FF1
:1045F000C00140070004C00440204020403FC000EC
:10460000400040000007C0040007C0040003C000D1
:1046100000044007C00440040003C0004000000341
:10462000800440044003800000041007F00450049C
:104630004003800000000003800440045007F000A5
:1046400010044007C00240040004000000000006FF
:10465000400540054004C00000000004001F800425
:104660004000400000040007800040044007C000F4
:10467000400400070004C001800600040006000199
:10468000C0070001C006000000044006C00100068B
:10469000C0044000000410071004E001800600047C
:1046A000000000044005C006400440000000000077
:1046B0000004007BE040200000000000000000FF3C
:1046C000F000000000000040207BE004000000003B
:1046D000004000800040002000200040000000005A
:1046E00000000000000000000000000000000000CA
:1046F0000000001FCC000C000000000000000008BB
:10470000003000600008003000600000000220035C
:10471000FC1E20022003FC1E200220000000000ED0
:104720001811043FFF10840C78000000000F0010E7
:10473000840F3800C0077818840078000000780FD4
:104740008410C411240E9800E40084000808006856
:1047500000700000000000000000000000000000E9
:1047600000000007E018182004400200000000408C
:10477000022004181807E0000000000000024002B8
:104780004001800FF00180024002400000008000E4
:104790008000800FF8008000800080000000010091
:1047A0000D000E00000000000000000000000000EE
:1047B0008000800080008000800080008000000079
:1047C0000C000C00000000000000000000000000D1
:1047D0000600180060018006001800200000000795
:1047E000F0080810041004080807F0000000000892
:1047F0000408041FFC000400040000000000000E78
:104800000C10141024104411840E0C000000000C35
:104810001810041104110412880C7000000000002C
:10482000E00320042408241FFC0024000000001FD3
:104830009810841104110410881070000000000703
:10484000F008881104110418880070000000001C92
:1048500000100010FC13001C001000000000000EEF
:104860003811441084108411440E380000000007F1
:1048700000088C10441044088807F0000000000075
:10488000000000030C030C0000000000000000000A
:104890000000010106000000000000000000000010
:1048A00080014002200410080810040000022002C9
:1048B000200220022002200220022000000000101E
:1048C0000408080410022001400080000000000ECF
:1048D000001200100C106C10800F00000003E00CA0
:1048E0001813E4142417C4082807D000000004009B
:1048F0003C03C41C40074000E4001C000410041FDB
:10490000FC1104110411040E880070000003E00C77
:104910001810041004100410081C10000010041FCC
:10492000FC100410041004080807F0000010041F15
:10493000FC1104110417C410040818000010041F0F
:10494000FC1104110017C010000800000003E00C67
:10495000181004100410441C780040000010041FBC
:10496000FC10840080008010841FFC1004000010E4
:104970000410041FFC1004100400000000000300D9
:1049800001100110011FFE10001000000010041F94
:10499000FC110403801464181C1004000010041F90
:1049A000FC1004000400040004000C000010041FAC
:1049B000FC1F0000FC1F001FFC1004000010041F5F
:1049C000FC0C04030000E010181FFC100007F008A6
:1049D00008100410041004080807F0000010041F59
:1049E000FC10841080108010800F00000007F00879
:1049F0001810241024101C080A07F2000010041FCD
:104A0000FC1104110011C011300E0C000400000E46
:104A10001C11041084108410441C3800001800106D
:104A20000010041FFC100410001800000010001FEC
:104A3000F810040004000410041FF8100010001EF9
:104A40000011E0001C007013801C0010001FC0103B
:104A50003C00E01F0000E0103C1FC00000100418E4
:104A60000C163401C001C01634180C100410001CC0
:104A700000130400FC13041C0010000000080410C4
:104A80001C1064108413041C0410180000000000A3
:104A90000000007FFE4002400240020000000030A3
:104AA000000C0003800060001C00030000000040B8
:104AB00002400240027FFE000000000000000000F3
:104AC00000200040004000400020000000000100E5
:104AD000010001000100010001000100010000408F
:104AE0000040002000000000000000000000000066
:104AF00098012401440144014400FC000410001FFB
:104B0000FC0088010401040088007000000000001F
:104B10007000880104010401040088000000000006
:104B20007000880104010411081FFC00040000004B
:104B3000F8014401440144014400C80000000001A0
:104B40000401040FFC1104110411001800000000FE
:104B5000D601290129012901C90106000010041FFD
:104B6000FC008401000100010400FC0004000001BD
:104B700004190419FC0004000400000000000000F7
:104B80000300010101190119FE0000000010041FBB
:104B9000FC0024004001B4010C01040000000010DE
:104BA0000410041FFC0004000400000000010401C4
:104BB000FC0104010001FC0104010000FC010401EE
:104BC000FC008401000100010400FC00040000005E
:104BD000F8010401040104010400F80000010101CE
:104BE000FF0085010401040088007000000000003F
:104BF00070008801040104010501FF0001010401A6
:104C00000401FC0084010401000180000000000098
:104C1000CC0124012401240124019800000000019A
:104C200000010007F8010401040000000001000178
:104C3000F8000400040004010801FC000401000164
:104C4000800170000C001001600180010001F00182
:104C50000C003001C00030010C01F0010000000127
:104C600004018C00740170018C0104000001010139
:104C7000810171000E001801600180010000000137
:104C800084010C013401440184010C000000000087
:104C9000000000000001003EFC4002400200000055
:104CA0000000000000FFFF000000000000000040C6
:104CB0000240023EFC010000000000000000006015
:104CC0000080008000400040002000200000000024
:104CD00000000000000000000000000000000000D4
:104CE00000000000000000000000000000000000C4
:104CF00000000000000000000000000000000000B4
:104D00000F80380FFE380F803800000000000000D0
:104D1000000000000000000000000001000006008C
:104D2000000C00003800003100000600000C0000FC
:104D3000380000300000000000000000006180002A
:104D400067F807F980006180006180006180006180
:104D5000800067F807F98000618000000000000013
:104D600000000001C0E003E0F00630080418081F4E
:104D7000FFFE040E080787F00381E000000000003A
:104D80000001F000060C00040408060C7001F9C0D4
:104D9000000E00003BE000EC18070808040C1800A7
:104DA00003E00000000001E00007F003F818041C15
:104DB0000804170807E1D003C0E00023B0003C0856
:104DC0000020080000100000000000000100003179
:104DD00000003200001C0000000000000000000085
:104DE00000000000000000000000000000000000C3
:104DF000000000000000000000000000007F000133
:104E0000FFC00780F00C0018100004200002000012
:104E1000000000002000021000040C00180780F0C1
:104E200001FFC0007F000000000000000000000043
:104E30000000000000000000004200006600006664
:104E400000003C0000180003FFC0001800003C00F8
:104E5000006600006600004200000000000800003C
:104E6000080000080000080000080001FFC000085A
:104E70000000080000080000080000080000000012
:104E800000000100003100003200001C00000000A2
:104E90000000000000000000000000000000000012
:104EA00000000000000800000800000800000800E2
:104EB00000080000080000080000080000080000CA
:104EC00008000000000000000000000000380000A2
:104ED0003800003800000000000000000000000062
:104EE00000000000000000000000000000000600BC
:104EF000001C000070000180000E0000380000C09F
:104F0000000700001C00003000000000000000004E
:104F1000007F8001FFE00380700600180400080491
:104F2000000806001803807001FFE0007F80000089
:104F30000000000000000001000801000801000856
:104F400003FFF807FFF80000080000080000080051
:104F5000000000000000000001C03802C05804003A
:104F600098040118040218040418061C1803F81801
:104F700001E0F800000000000000000001C0E003B4
:104F8000C0F004000804080804080806180803F420
:104F90001801E7F00001E000000000000000000040
:104FA000000300000D0000110000610000810803F3
:104FB000010807FFF80FFFF80001080001080000D2
:104FC000000000000000E007FCD0060808061008FA
:104FD000061008061008061838060FF00607C0006D
:104FE0000000000000000000003F8001FFE003849B
:104FF00030020818041008041008041008071810DC
:10500000030FF00007C000000000000000000003D4
:10501000C0000700000600000600F80607F80618A2
:105020000006E0000700000600000000000000008D
:1050300001E1E003F7F0063410041808041808042E
:105040000C08040C0806161803F3F001C1E0000078
:105050000000000000F80003FC30030638040208DA
:105060000402080402080404100308F001FFC00051
:105070007F000000000000000000000000000000B1
:105080000000000000703800703800703800000028
:105090000000000000000000000000000000000010
:1050A000000000000000000000301A00301C00006A
:1050B00000000000000000000000000000000000F0
:1050C0000000000008000014000022000041000061
:1050D0008080010040020020040010080008000049
:1050E000000000000021000021000021000021003C
:1050F000002100002100002100002100002100000B
:10510000210000000000000000000008000804006A
:1051100010020020010040008080004100002200B9
:1051200000140000080000000000000003C000049C
:10513000C000040000080038080F380808380810BC
:10514000000C300007E00003C00000000000000079
:10515000003F8000FFE0038070020F10067088049B
:10516000C088048308047F8802C09003012000FEE9
:10517000400000080000180001F8003E0801C200CD
:1051800007020007E20000FE00001FC80001F8004F
:10519000003800000804000807FFF807FFF80408BB
:1051A0000804080804080804080806180803F41886
:1051B00001E7F00001E0000000000000003F800176
:1051C000FFE00380700200180400080400080400D7
:1051D000080400100600200780C00000000400083A
:1051E00007FFF807FFF8040008040008040008049B
:1051F000001802001003807001FFE0007F800000B3
:105200000004000807FFF807FFF80408080408086E
:10521000040808040808043E0804000806001801F1
:10522000006000000004000807FFF807FFF804080A
:1052300008040800040800040800043E00060000FA
:10524000060000018000000000000000003F800117
:10525000FFE003807006001804000804020804023E
:10526000080203F00783F0000200000200040008B7
:1052700007FFF807FFF8040808000800000800000E
:10528000080000080004080807FFF807FFF80400FA
:1052900008000000000000040008040008040008E2
:1052A00007FFF807FFF804000804000804000800DE
:1052B00000000000000000000000060000070000E1
:1052C0000104000104000104000307FFFE07FFFCC6
:1052D00004000004000004000004000807FFF807B1
:1052E000FFF8040C08001800003E0004C780050306
:1052F000C80600F80400380400180000080400087C
:1053000007FFF807FFF80400080000080000080085
:1053100000080000080000080000180000600000FD
:105320000004000807FFF807800807FC00007FC0A2
:105330000003F80007C000780007800807FFF8079F
:10534000FFF804000804000807FFF807000803C07E
:105350000000E000003800001E000007000001C04F
:105360000400F007FFF8040000000000007F800147
:10537000FFE003807006001804000804000806001F
:105380001803003001FFE0007F80000000040008E7
:1053900007FFF807FFF804040804040004040004ED
:1053A0000400040400060C0003F80001F0000000F3
:1053B00000000000007F8001FFE00380700600888D
:1053C0000400880400C806003C03003E01FFE6001C
:1053D0007F8400000004000807FFF807FFF80408B6
:1053E00008040800040C00040F00040BC00610F0B1
:1053F00003F03801E00800000800000001E0F803B5
:10540000F030063010041808041808040C08040CC6
:10541000080206180207F00781E000000001800082
:1054200006000004000004000004000807FFF8075D
:10543000FFF80400080400000400000600000180DA
:105440000004000007FFE007FFF004001800000858
:105450000000080000080000080000080400100711
:10546000FFE004000004000006000007E00007FE63
:1054700000041FE00001F80000380001E0043E00D5
:1054800007C00006000004000004000007E0000759
:10549000FFC0041FF80007C007F80007FF80043FA3
:1054A000F80007C004F80007000004000000000036
:1054B00004000806001807C07805F1C8003E000087
:1054C0001F800463E80780F8060018040008000045
:1054D0000004000006000007800007E008047C08C4
:1054E000001FF80007F800180804E008070000068D
:1054F000000004000000000001000806003804005D
:10550000F80403E8040F08047C0805F00807C00845
:105510000700180400600000000000000000000008
:1055200000000000000000003FFFFE2000022000FD
:105530000220000220000220000200000000000003
:1055400000000008000007000000C0000038000054
:1055500006000001C000003000000E000001000045
:1055600000000000000000200002200002200002D5
:105570002000022000023FFFFE00000000000000AB
:105580000000000000000000000000000000080013
:10559000001000003000002000003000001000006B
:1055A00008000000000000000000000100000100F1
:1055B00000010000010000010000010000010000E6
:1055C00001000001000001000001000001000000D6
:1055D000000000000000200000200000100000106B
:1055E00000000000000000000000000000000000BB
:1055F000000000000000F00019F8001B180022084D
:10560000002608002408002410003FF8001FF800BE
:10561000000800001800000004000007FFF80FFF5A
:10562000F0001818001008002008002008003018AA
:10563000001FF0000FC00000000000000007C000C5
:105640001FF0001830002008002008002008003C4F
:1056500008001C10000060000000000000000000B6
:105660000007C0001FF000381800200800200800C4
:10567000200804101007FFF80FFFF00000100000D2
:10568000000000000000000007C0001FF000123002
:10569000002218002208002208003208001E100014
:1056A0000E20000000000000002000002008002064
:1056B0000801FFF803FFF80620080420080420086A
:1056C00007200003000000000000000000000E00A2
:1056D0000E6E001FF30031B10020B10020B1003187
:1056E00091001F13002E1E00200E0030000000004D
:1056F00004000807FFF80FFFF80010080020000062
:105700002000002008003FF8001FF80000080000FB
:105710000000000000000000200800200800200811
:10572000063FF8063FF800000800000800000800E7
:105730000000000000000000000000000003000066
:1057400003002001002001002003063FFE063FFC6D
:105750000000000000000000000000000400080736
:10576000FFF80FFFF8000188000300002FC0003889
:10577000F8002038002008000008000000000000A9
:1057800000000004000804000804000807FFF80FE8
:10579000FFF80000080000080000080000000000FA
:1057A00000002008003FF8003FF80010080020002B
:1057B000003FF8003FF8001008002000003FF8000C
:1057C0003FF8000008000000002008003FF8003FFC
:1057D000F8001008001000002000002008003FF82A
:1057E000001FF80000080000000000000007C000D3
:1057F0000FF00018300030080020080020080030AA
:1058000008001830000FF00007C000000000000082
:10581000002001003FFF003FFF00101100200900A1
:105820002008002008003038001FF0000FC00000E2
:10583000000000000007C0001FF00038180020081A
:10584000002008002009001011001FFF003FFF008A
:105850000001000000002008002008002008003F90
:10586000F8003FF800080800100800200800200099
:1058700000300000300000000000000000000000C8
:105880000C78001E180033080023080021080021AE
:10589000880021980030F00038600000000000000F
:1058A00000200000200000200000FFF003FFF800AF
:1058B0002008002008002008000030000000000040
:1058C00000000000002000003FF0007FF8000018FA
:1058D000000008000008002010003FF8007FF000E2
:1058E0000010000000000000002000003000003C1C
:1058F00000003F800023F00000780000700023804B
:10590000003C00003000002000002000003C0000AF
:105910003FE00023F80000E0002700003E00003FC9
:10592000E00021F80001E0003E000020000000003F
:10593000002008002008003838003E68002780005A
:1059400003C8002CF8003838002018002008000098
:1059500000000000002000003003003C01003F83F5
:105960000023EC000070002380003C0000200000B9
:1059700020000000000000000000000038080020A7
:10598000380020F80023E8002F88003E080038087F
:10599000002018000070000000000000000000005F
:1059A00000000000000000000008000014001FF7C5
:1059B000FC30000620000200000000000000000093
:1059C000000000000000000000000000000000FFD8
:1059D000FFFF0000000000000000000000000000C9
:1059E000000000000000002000023000061FF7FC4D
:1059F000001400000800000000000000000000008B
:105A000000000000000000001800006000004000DE
:105A1000004000002000001000000800000400000A
:105A20000400000C000010000008D908950899082F
:105A30009D08D608DA08DE0896089A089E0000003D
:105A4000605A0008000000208C0000006C01000873
:105A5000EC5A00088C0000208C1900008801000816
:105A60000100000010000000000000000000000025
:105A70000000000000000000000000000000000026
:105A80000000000000000000000000000000000016
:105A90000024F400000000000000000000000000EE
:105AA00000000000000000000000000000000000F6
:105AB00000000000000000000000000000000000E6
:105AC00000000100000000000000000000000000D5
:105AD00000000000000000000000000000000000C6
