:020000040800F2
:1000000000150020CD010008611200085D120008F3
:100010005F12000861050008451500080000000097
:10002000000000000000000000000000891200082D
:10003000AD05000800000000631200088D120008E2
:10004000E7010008E7010008E7010008E7010008F0
:10005000E7010008E7010008E7010008E7010008E0
:10006000E7010008E7010008E70100086305000850
:1000700065050008710500087D0500088905000870
:1000800095050008A1050008E7010008E701000840
:10009000E7010008E7010008E7010008E7010008A0
:1000A000E7010008E7010008E7010008E701000890
:1000B000E7010008E7010008E7010008E701000880
:1000C000E7010008E7010008E7010008E701000870
:1000D000E7010008ED120008B51300087D140008C0
:1000E000E7010008E7010008E7010008E701000850
:1000F000E7010008E7010008E7010008E701000840
:10010000E7010008E7010008E7010008E70100082F
:10011000E7010008E7010008E7010008E70100081F
:10012000E7010008E7010008E7010008E70100080F
:1001300000F002F800F03AF80AA090E8000C8244BF
:100140008344AAF10107DA4501D100F02FF8AFF29C
:10015000090EBAE80F0013F0010F18BFFB1A43F0A5
:1001600001031847382E0000582E0000103A24BF13
:1001700078C878C1FAD8520724BF30C830C144BF0C
:1001800004680C607047000000230024002500264E
:10019000103A28BF78C1FBD8520728BF30C148BFEA
:1001A0000B6070471FB51FBD10B510BD00F031F8D2
:1001B0001146FFF7F7FF01F033FA00F04FF803B4F0
:1001C000FFF7F2FF03BC00F057F800000948804732
:1001D00009480047FEE7FEE7FEE7FEE7FEE7FEE729
:1001E000FEE7FEE7FEE7FEE704480549054A064B41
:1001F00070470000A512000831010008000B002024
:1002000000150020000D0020000D002070477047F1
:100210007047754600F02CF8AE4605006946534617
:1002200020F00700854618B020B5FFF7DDFFBDE8D8
:1002300020404FF000064FF000074FF000084FF04D
:10024000000B21F00701AC46ACE8C009ACE8C009DE
:10025000ACE8C009ACE8C0098D46704710B504464B
:10026000AFF300802046BDE81040FFF7A8BF0000B4
:10027000004870479C0A002001491820ABBEFEE7E9
:1002800026000200704700007FB5044600F00AFB1C
:100290001F4D01262E706878A04203D000F0CAF9E5
:1002A000AE706C7000262CB10C20012C09D0022CF1
:1002B0002AD118E0A878012826D1AE7000F0C8F93C
:1002C00022E0A97801290BD1AE70CDE9010611A178
:1002D000009100210C2340220396084600F03AFAD0
:1002E00001F073FA10E0A978012900D1AE70CDE9D0
:1002F00001060AA1009100210C2340220396084622
:1003000000F028FA01F060FA2E7004B0204670BDAB
:100310001800002069646C650000000064626700DA
:1003200070B586B0144CA06940F00800A061A069C7
:1003300000F0080001904FF49040029001250395D1
:1003400004950326059602A90C4800F061FBA069FC
:1003500040F00400A061A06900F004000190E014E6
:10036000029003950495059602A9054800F050FBFC
:100370000448056006B070BD00100240000C01404A
:1003800000080140AC81214210B501F0F1F800F005
:100390009BF80021AE2001F011F90021084601F080
:1003A0000DF90021102001F009F90021402001F091
:1003B00005F90021812001F001F90021CF2001F091
:1003C000FDF80021A12001F0F9F80021C82001F07A
:1003D000F5F80021A62001F0F1F80021A82001F095
:1003E000EDF800213F2001F0E9F80021D32001F0D1
:1003F000E5F80021084601F0E1F80021D52001F0E0
:10040000DDF80021802001F0D9F80021D92001F089
:10041000D5F80021F12001F0D1F80021DA2001F017
:10042000CDF80021122001F0C9F80021DB2001F0F5
:10043000C5F80021402001F0C1F80021202001F082
:10044000BDF80021022001F0B9F800218D2001F053
:10045000B5F80021142001F0B1F80021A42001F02A
:10046000ADF80021A62001F0A9F80021AF2001F08D
:10047000A5F80021BDE81040AF2001F09FB80000B2
:1004800070B500250F4E05F1B000C0B2002101F09B
:1004900095F80021084601F091F80021102001F0A4
:1004A0008DF8002406EBC4000121405D01F086F8C0
:1004B000641CE4B2802CF5D36D1CEDB2082DE2D3A0
:1004C00070BD00009006002010B5064C0020206092
:1004D000642000F06CF801202060BDE8104064202A
:1004E00000F065B89881214230B58FB001210591A7
:1004F000090406910024079402250C950D910E9095
:1005000005A800F0D5FC00B1FEE70F200090019592
:1005100002944FF48060039004940221684600F036
:10052000E3FB002800D0FEE70FB030BD10B54FF060
:10053000E0240A486061A06101210322881E00F0C6
:10054000A1FB206940F004002061206940F0020016
:100550002061206940F00100206110BD3F190100B9
:10056000FEE77047014800F09FB90000000200203C
:10057000014800F099B9000044020020014800F051
:1005800093B90000F0000020014800F08DB9000090
:1005900034010020014800F087B90000BC010020B0
:1005A000014800F081B9000078010020704770B563
:1005B000054600244FF47A7603E0304600F004F854
:1005C000641CAC42F9D370BD70B500214FF0E0253A
:1005D0006B6900EBC000C400AA69A8699042FCD016
:1005E00003D2A2EB0002114403E0A3EB0006324465
:1005F00011440246A142F0D370BD000010B580281E
:100600000ED240290CD2CB0801F0070101248C4006
:10061000E1B2074C04EBC0001AB1C25C0A43C254F9
:1006200010BDC25CD2430A43D143C15410BD000087
:10063000900600200020054A00214FF480631154E9
:10064000401C80B29842FAD3704700009006002008
:100650000020054AFF214FF480631154401C80B2F2
:100660009842FAD37047000090060020FFF7E2BFDF
:10067000FFF706BF10B5FFF787FEFFF7F7FFBDE8EE
:100680001040FFF7F5BF00002DE9F84F81460C46FA
:100690001F4604F0FF0B780701D0012000E0002086
:1006A00000EBD70079084843C0B20090107820389A
:1006B00000F0FF0A002641E00C2F14D0102F19D0B3
:1006C000182F3ED120490AEBCA0001EB8000855D5E
:1006D0004FF00008280612D5E1B209F0FF00012210
:1006E000FFF78CFF13E019490AEB4A0001EB800089
:1006F000855DEDE7164800EB0A10855DE8E70A988E
:1007000028B9E1B209F0FF000022FFF777FF680681
:10071000050E641CA4B2A4EB0B00B84205D15C46E4
:1007200009F101091FFA89F906E008F1010808F04A
:10073000FF08B8F1080FCDD3761CF6B200988642B8
:10074000BAD3BDE8F88F000040220008DC1700088B
:10075000501C00082DE9FC4F0646DDE90DABDDE934
:100760000B750C46B046B01880B20190E0181FFA25
:1007700080F9AB4253D34FE080280DD9019871190D
:10078000814202D9601984B246466019484546D86C
:10079000BF1C701986B23FE00D2811D0019806EBFE
:1007A0005501814202D9601984B246466019484514
:1007B00035D80C2D0CD0102D15D0182D28D11DE0BA
:1007C000601984B246466019484528D87F1C23E04A
:1007D00004EB0B0081B20C233A463046CDF800A062
:1007E000FFF752FF14E004EB0B0081B210233A46EE
:1007F0003046CDF800A0FFF747FF09E004EB0B00FF
:1008000081B218233A463046CDF800A0FFF73CFFEE
:100810007F1C06EB550086B238780028ACD1BDE8C5
:10082000FC8F000002480168491C0160704700000D
:100830001400002010B50023012904D0022902D0A1
:100840000123184610BD0024047041700249096854
:1008500041608260F5E7000014000020084942680A
:10086000836809688A1A9A4206D301220270427884
:10087000022A03D1416001E0002101700078704735
:10088000140000200170FF2141708170C1700021AF
:1008900001714171704701788170C1780170002148
:1008A00041717047704700002DE9F05FC16B0A6825
:1008B00001680B68046C4FF0040A0AFA04FA4E4D02
:1008C0004E4E4F4FDFF83CC1DFF83C81DFF83C91E2
:1008D0001AEA020F31D05FEA437A2ED50A689206EF
:1008E00003D40A6822F004020A600168A94201D117
:1008F000042119E0B14201D1402115E0B94202D1F1
:100900004FF4806110E0614502D14FF480410BE06B
:10091000414502D14FF4802106E0494502D14FF410
:10092000800101E04FF08061334A083A5160C16AAA
:1009300000295FD0BDE8F05F08474FF0020E0EFAC5
:1009400004FE1EEA020F4FF0000A4FF0010B35D0F3
:100950005FEA837E32D50A68920605D40A6822F0DF
:100960000A020A6080F821B00168A94201D102217F
:1009700019E0B14201D1202115E0B94202D14FF472
:10098000007110E0614502D14FF400510BE0414588
:1009900002D14FF4003106E0494502D14FF4001175
:1009A00001E04FF00071144A083A516080F820A02D
:1009B000816A00291ED0BDE8F05F08470825A540E0
:1009C000154217D01A0715D50A6822F00E020A60E0
:1009D00090F84010C26B0BFA01F15160C0F838B0CA
:1009E00080F821B080F820A0016B002902D0BDE87A
:1009F000F05F0847BDE8F09F080002401C0002407D
:100A00003000024044000240580002406C000240A6
:100A10002DE9F84F00240023DFF8C4914FF00F08B0
:100A200009F1040A0AF1040B0BF1040ED1E00127CD
:100A3000A7403A40BA4275D1DFF8A8C14D68A5EB8E
:100A40000C0665452BD00DDC032D34D005DC35B309
:100A5000012D19D0022D2FD11BE0112D16D0122DF2
:100A60002AD119E0B6F5881F19D006DCB6F5803F0B
:100A700015D0B6F5801F1FD111E0B6F5001F0ED0BE
:100A8000B6F5041F18D10AE0CB6815E0CB681B1D32
:100A900012E0CB6808330FE0CB680C330CE08B68B6
:100AA00023B1012B04D00823476105E0042303E0B0
:100AB0000823076100E00023FF2A01D8054601E072
:100AC00000F1040502D84FEA840603E0A4F1080609
:100AD0004FEA86062F6808FA06FC27EA0C0703FA95
:100AE00006F647EA06072F604D68ED0070D53E4DCB
:100AF000AE6946F00106AE61AD6905F001050095ED
:100B00003A4D24F003067719BE68A5072D0F08FAA1
:100B100005FC26EA0C06DFF8D8C0604503D14FF08B
:100B2000000C17E054E0DFF8CCC0604502D14FF074
:100B3000010C0FE0DFF8C0C0604502D14FF0020C9D
:100B400008E0DFF8B8C0604502D14FF0030C01E0C7
:100B50004FF0040C0CFA05FC4CEA060CC7F808C070
:100B60004D68ED0305D5D9F800501543C9F800507C
:100B700004E0D9F800509543C9F800504D68AD0322
:100B800005D5DAF800501543CAF8005004E0DAF849
:100B900000509543CAF800504D68ED0205D5DBF8CA
:100BA00000501543CBF8005004E0DBF800509543AB
:100BB000CBF800504D68AD0205D5DEF80050154366
:100BC000CEF8005004E0DEF800509543CEF8005017
:100BD000641C0A6832FA04F57FF429AFBDE8F88F87
:100BE000000401400000111000100240000001400C
:100BF00000080140000C01400010014000140140B9
:100C000001488068704700000000002002488168A9
:100C100002781144816070470000002010B506483A
:100C2000016841F010010160052000F04BF800F070
:100C300027F8002010BD00000020024070B50446D7
:100C40000D4D4FF47A712878B1FBF0F00B4909682B
:100C5000B1FBF0F000F0EEFA08B1012070BD102CED
:100C600007D200222146501E00F00CF86C600020D4
:100C700070BD012070BD00000000002010000020A9
:100C800070470000F0B40D460D4B1B68C3F3022300
:100C9000C3F10704042C00D90424191D072901D22B
:100CA000002300E0DB1E012606FA04F1491E29405C
:100CB00099409E40761E16403143F0BC00F043BC84
:100CC0000CED00E000F00701054A10684FF6FF0345
:100CD000184040EA012003490843106070470000B3
:100CE0000CED00E00000FA052DE9F04704460D4642
:100CF000002C17D0DFF83081D8F8000000F0070092
:100D0000A84211D2D8F8000020F007002843C8F804
:100D10000000D8F8000000F00700A84204D001202D
:100D2000BDE8F0870120FBE72068404E810712D51F
:100D3000400703D5706840F4E060706020780007D9
:100D400003D5706840F4605070607068A16820F04E
:100D5000F000084370602078C0072CD0606801283C
:100D600006D0022809D0316889070BD40120D7E7C3
:100D70003168890306D40120D2E73168890101D4A2
:100D80000120CDE7716821F0030101437160FFF795
:100D900037FF074641F2883906E0FFF731FFC01BF5
:100DA000484501D90320BBE77068616800F00C007A
:100DB000B0EB810FF1D1D8F8000000F00700A84295
:100DC0000ED9D8F8000020F007002843C8F800002A
:100DD000D8F8000000F00700A84201D001209FE7EA
:100DE0002078400705D57068E16820F4E06008438A
:100DF00070602078000706D57068216920F4605083
:100E000040EAC100706000F019F87168084AC1F347
:100E10000311515CC8400749086007480068FFF7A4
:100E20000DFF00207CE7000000200240001002407F
:100E3000CC170008100000200400002085B014A08A
:100E400090E80E00C068CDE902230191049014A03F
:100E500000680090134B5968134801F00C02042AF3
:100E600010D0082A0ED101A8C1F38342805CC903C7
:100E70000AD55968C1F340411DF801100A4A504390
:100E8000B0FBF1F005B0704708494843FAE70000AD
:100E900002030405060708090A0B0C0D0E0F1010BB
:100EA000010200000010024000127A0000093D001B
:100EB0002DE9F84F0446002C0ED02078D94DC007FC
:100EC0005ED06868C0F3810001280BD06868C0F369
:100ED0008100022803D00CE00120BDE8F88F68688B
:100EE000C00306D5286880034AD56068A8BB0120E6
:100EF000F3E76068B0F5803F11D0A8B1B0F5A02F3E
:100F00001BD0286820F480302860286820F48020D6
:100F10002860606830B3FFF773FE06461EE028685D
:100F200040F480302860F4E7286820F4803028609E
:100F3000286820F480202860EBE7286840F48020AF
:100F40002860286840F480302860E2E7FFF758FE08
:100F5000801B642802D90320BFE711E028688003C2
:100F6000F4D50DE0FFF74CFE064606E0FFF748FE1D
:100F7000801B642801D90320AFE728688003F5D4DB
:100F80002078DFF8A48280074FF0010A4FF00009B3
:100F900045D5686810F00C0F07D06868C0F3810071
:100FA000022812D16868C0030FD42868800704D5CE
:100FB0002069012801D001208FE72868616920F0AD
:100FC000F80040EAC100286029E02069B8B1C8F8FB
:100FD00000A0FFF715FE064606E0FFF711FE801B96
:100FE000022801D9032078E728688007F5D528680A
:100FF000616920F0F80040EAC10028600FE0C8F8FD
:101000000090FFF7FDFD064606E0FFF7F9FD801BA7
:10101000022801D9032060E728688007F5D42078EA
:10102000000726D58148A16999B1C0F800A0FFF753
:10103000E7FD064606E0FFF7E3FD801B022801D925
:1010400003204AE7686A8007F5D5012000F00AF915
:101050000FE0C0F80090FFF7D3FD064606E0FFF76B
:10106000CFFD801B022801D9032036E7686A80077C
:10107000F5D42078400773D50026E869C00008D46D
:10108000E86940F08050E861E86900F08050009025
:101090000126DFF89CB1DBF80000C00514D4DBF8B2
:1010A000000040F48070CBF80000FFF7A9FD074670
:1010B00006E0FFF7A5FDC01B642801D903200CE75B
:1010C000DBF80000C005F4D5E068012812D0B0B10B
:1010D00005281DD0286A20F001002862286A20F027
:1010E00004002862E06841F2883B28B3FFF788FDDE
:1010F00007461DE0286A40F001002862F2E7286AEE
:1011000020F001002862286A20F004002862E9E744
:10111000286A40F004002862286A40F00100286232
:10112000E0E7FFF76DFDC01B584501D90320D4E669
:10113000286A8007F5D50DE0FFF762FD074606E057
:10114000FFF75EFDC01B584501D90320C5E6286A9C
:101150008007F5D4012E03D1E86920F08050E861C2
:10116000E069A0B36968C1F38101022946D0022871
:1011700005D0C8F86090FFF743FD04463AE0C8F890
:101180006090FFF73DFD064606E0FFF739FD801B46
:10119000022801D90320A0E628688001F5D4206A3E
:1011A000B0F5803F05D16868A16820F4003008439D
:1011B0006860D4E908010843696821F474110843A0
:1011C0006860C8F860A0FFF71BFD044607E026E052
:1011D000FFF716FD001B022801D903207DE62868D1
:1011E0008001F5D51BE0FFF70BFD001B022801D99C
:1011F000032072E628688001F5D410E001280CD0A5
:101200006868226A00F48031914204D1616A00F476
:101210007010884203D001205FE601205DE60020C7
:101220005BE600000010024000004242800442429F
:101230000070004010B5401EB0F1807F01D3012046
:1012400010BD4FF0E02460610F21601700F07BF9C2
:101250000020A06107202061002010BDFEE7FEE70E
:101260007047704708B507494FF4FA520968B1FB57
:10127000F2F14143009100BF0098411E0091FAD263
:1012800008BD0000100000207047000010B5FFF7F7
:10129000BDFCFFF7C7FA02480168491C016010BD98
:1012A0000C0000200D48016841F001010160416817
:1012B0000B4A1140416001680A4A1140016001680F
:1012C00021F480210160416821F4FE0141604FF466
:1012D0001F0181600449C00308607047001002408C
:1012E0000000FFF8FFFFF6FE08ED00E0F8B52E4D18
:1012F000286801684FF00006C943C90702D1016898
:10130000416800910168C943890702D401684168B6
:1013100000910168C943490702D4016841680091FE
:101320000168C943090702D4016841680091016856
:10133000C943C9062DD4C168C9062AD501684068C9
:101340000090696B184C09687434E0884968401A49
:1013500080B22188814202D2401A608000E066801B
:10136000608898B915E000962188A268525C0092C6
:10137000E288491CB1FBF2F302FB13112180401EED
:10138000608001226946094800F0FCF96088002865
:10139000E9D128680168C943890604D4C068800679
:1013A00001D503480068F8BD88020020D003002062
:1013B00004380140F8B52E4D286801684FF000064A
:1013C000C943C90702D10168416800910168C94356
:1013D000890702D40168416800910168C94349073F
:1013E00002D40168416800910168C943090702D429
:1013F0000168416800910168C943C9062DD4C168DC
:10140000C9062AD5016840680090696B184C0968C4
:101410007434E0884968401A80B22188814202D23F
:10142000401A608000E06680608898B915E00096F8
:101430002188A268525C0092E288491CB1FBF2F359
:1014400002FB13112180401E608001226946094879
:1014500000F098F960880028E9D128680168C9433C
:10146000890604D4C068800601D503480068F8BD29
:10147000E00300202805002004440040F8B52E4D6C
:10148000286801684FF00006C943C90702D1016806
:10149000416800910168C943890702D40168416825
:1014A00000910168C943490702D40168416800916D
:1014B0000168C943090702D40168416800910168C5
:1014C000C943C9062DD4C168C9062AD50168406838
:1014D0000090696B184C09687434E0884968401AB8
:1014E00080B22188814202D2401A608000E066808A
:1014F000608898B915E000962188A268525C009235
:10150000E288491CB1FBF2F302FB13112180401E5B
:10151000608001226946094800F034F9608800289B
:10152000E9D128680168C943890604D4C0688006E7
:1015300001D503480068F8BD38050020800600206A
:1015400004480040FEE70907090E002804DB00F10B
:10155000E02080F80014704700F00F0000F1E02058
:1015600080F8141D70470320401EC0B2FCD27047A3
:1015700010B586B00E48816941F00801816180692B
:1015800000F0080001904BF2C00002900124039487
:1015900004940320059002A90648FFF739FA06488B
:1015A0000021C16144620460416006B010BD0000CA
:1015B00000100240000C01409881214230B5012505
:1015C000064C002902D0C4F8B05102E00021C4F852
:1015D000B01100F005F8C4F8B05130BD00802142D0
:1015E00070B50346FFF7BFFF002200250B4C012614
:1015F000C4F8B451180602D5C4F8BC6101E0C4F8BF
:10160000BC51FFF7B0FFC4F8B4615806030EFFF7F2
:10161000AAFF521CD2B2082AEAD370BD0080214230
:1016200008B55248816941F001018161806900F08B
:10163000010000904E49486820F0E06040F00070E2
:101640004860FFF7EBFA4FF4E010FEF74DFFFEF7AE
:101650006DFFFEF765FE4FF4FA742046FEF7A7FF14
:10166000FFF708F8224602214248FFF7E3F800217D
:101670004148FFF707F9DFF80481DFF804910024FF
:1016800002273D4E01257078FF2804D03179FEF7FE
:10169000FBFDFEF7EDFF3748FFF7E0F8012811D119
:1016A000D8F8AC0118B30020C8F8AC01D8F8B801DC
:1016B000F8B10020C8F8B801D9F8AC01D8B10020C1
:1016C000C9F8AC013078C0B1012835D00228DAD190
:1016D0007078022800D0347177703079E0B3012837
:1016E000D1D0FF28CFD12448FFF7D5F8CBE7012090
:1016F000DAE70120DEE70120E2E7707810B1FF2889
:101700000CD034717470307950B101280AD0FF28A0
:10171000B9D1707960B101280AD107E03471F1E7DD
:101720003571B0E77571FF203071ACE7F570347139
:101730001148FFF7B0F8A6E77078012800D034719F
:101740007570307948B101289DD0FF289BD1707900
:1017500030B1012804D102E006E0357193E7F7705B
:101760000548FFF798F88EE735718CE700100240C6
:1017700000000140900A00201B0000200080214250
:101780000000214270B500231AE0C4880589AC42EC
:1017900003D301210170012070BD8688C568CC5C2F
:1017A000AC5584880589641CB4FBF5F605FB16442A
:1017B0008480C488641CC4805B1C9BB2521E92B29D
:1017C000002AE2D1002070BD704770470000000081
:1017D00000000000010203040607080900000000E1
:1017E0000000000000000000000000003F4000007A
:1017F0000000000000003000400030004000000009
:1018000009000BC03D000BC03D00090018C024407A
:101810007FE0224031800000180024C01B000D80B2
:101820003240018003801C4027401C80074000405C
:101830001000600000000000000000000000000038
:1018400000001F80204040200000402020401F80DA
:1018500000000000090006001F80060009000000CB
:10186000040004003F800400040000000010006039
:101870000000000000000000040004000400040058
:101880000400000000000040000000000000000014
:10189000002001C006003800400000001F802040EA
:1018A000204020401F800000000010403FC000404A
:1018B0000000000018C021402240244018400000D1
:1018C00010802040244024401B80000002000D00B6
:1018D00011003FC0014000003C80244024402440CF
:1018E000238000001F8024402440344003800000F7
:1018F0003000200027C03800200000001B8024405A
:10190000244024401B8000001C0022C022402240B2
:101910001F800000000000000840000000000000E0
:10192000000000000460000000000000000004004F
:101930000A00110020804040090009000900090048
:101940000900000000004040208011000A0004004F
:101950001800200023402400180000001F802040B1
:10196000274029401F400000004007C039000F00F9
:1019700001C0004020403FC0244024401B800000A4
:101980001F802040204020403080000020403FC089
:10199000204020401F80000020403FC024402E40B7
:1019A00030C0000020403FC024402E003000000026
:1019B0000F001080204022403380020020403FC0B2
:1019C000040004003FC02040204020403FC0204091
:1019D000204000000060202020203FC02000200088
:1019E00020403FC024400B0030C0204020403FC07A
:1019F00020400040004000C03FC03C0003C03C000D
:101A00003FC0000020403FC00C4023003FC02000EA
:101A10001F802040204020401F80000020403FC009
:101A200024402400180000001F802140214020E0B5
:101A30001FA0000020403FC02440260019C00040E5
:101A400018C0244024402240318000003000204053
:101A50003FC020403000000020003F800040004098
:101A60003F80200020003E0001C007003800200019
:101A7000380007C03C0007C038000000204039C0D3
:101A8000060039C0204000002000384007C0384020
:101A900020000000304021C02640384020C0000017
:101AA000000000007FE040204020000000007000A7
:101AB0000C000380004000000000402040207FE038
:101AC0000000000000002000400020000000000096
:101AD00000100010001000100010001000000000A6
:101AE00040000000000000000000028005400540AA
:101AF00003C0004020003FC00440044003800000B9
:101B00000000038004400440064000000000038001
:101B1000044024403FC000400000038005400540D1
:101B200003400000000004401FC024402440200067
:101B3000000002E0055005500650042020403FC040
:101B40000440040003C000400000044027C00040DF
:101B50000000000000100010041027E0000000004A
:101B600020403FC00140070004C004402040204006
:101B70003FC000400040000007C0040007C0040050
:101B800003C00000044007C00440040003C000403C
:101B9000000003800440044003800000041007F0AC
:101BA00004500440038000000000038004400450FF
:101BB00007F00010044007C00240040004000000C9
:101BC000000006400540054004C00000000004007D
:101BD0001F800440004000000400078000400440D3
:101BE00007C000400400070004C001800600040094
:101BF000060001C0070001C006000000044006C046
:101C0000010006C0044000000410071004E0018039
:101C1000060004000000044005C006400440000027
:101C20000000000004007BE04020000000000000F5
:101C30000000FFF000000000000040207BE00400F6
:101C40000000000040008000400020002000400014
:101C50000000000000000000000000000000000084
:101C60000000000000001FCC000C0000000000007D
:101C70000000080030006000080030006000000034
:101C8000022003FC1E20022003FC1E200220000074
:101C900000000E1811043FFF10840C7800000000B3
:101CA0000F0010840F3800C00778188400780000F7
:101CB00000780F8410C411240E9800E400840008FA
:101CC0000800680070000000000000000000000034
:101CD00000000000000007E0181820044002000087
:101CE000000040022004181807E000000000000077
:101CF0000240024001800FF00180024002400000DB
:101D00000080008000800FF80080008000800000CC
:101D10000001000D000E00000000000000000000A7
:101D20000000008000800080008000800080008033
:101D30000000000C000C000000000000000000008B
:101D40000000000600180060018006001800200056
:101D5000000007F0080810041004080807F000004D
:101D60000000080408041FFC000400040000000038
:101D700000000E0C10141024104411840E0C0000EE
:101D800000000C1810041104110412880C700000DB
:101D9000000000E00320042408241FFC00240000AD
:101DA00000001F98108411041104108810700000A6
:101DB000000007F008881104110418880070000062
:101DC00000001C00100010FC13001C00100000009C
:101DD00000000E3811441084108411440E380000A5
:101DE00000000700088C10441044088807F0000029
:101DF000000000000000030C030C000000000000C5
:101E000000000000000101060000000000000000CA
:101E100000000080014002200410080810040000A7
:101E200002200220022002200220022002200000C4
:101E30000000100408080410022001400080000087
:101E400000000E001200100C106C10800F0000003B
:101E500003E00C1813E4142417C4082807D000006A
:101E60000004003C03C41C40074000E4001C0004C4
:101E700010041FFC1104110411040E8800700000EE
:101E800003E00C1810041004100410081C100000CB
:101E900010041FFC100410041004080807F00000D0
:101EA00010041FFC1104110417C4100408180000CA
:101EB00010041FFC1104110017C0100008000000DE
:101EC00003E00C181004100410441C7800400000BB
:101ED00010041FFC10840080008010841FFC10047C
:101EE0000000100410041FFC100410040000000087
:101EF00000030001100110011FFE1000100000007F
:101F000010041FFC110403801464181C100400004A
:101F100010041FFC1004000400040004000C000066
:101F200010041FFC1F0000FC1F001FFC1004000019
:101F300010041FFC0C04030000E010181FFC10002C
:101F400007F00808100410041004080807F0000047
:101F500010041FFC10841080108010800F000000FF
:101F600007F0081810241024101C080A07F20000BB
:101F700010041FFC1104110011C011300E0C0004DC
:101F800000000E1C11041084108410441C38000042
:101F90001800100010041FFC1004100018000000AE
:101FA00010001FF810040004000410041FF81000B3
:101FB00010001E0011E0001C007013801C001000B7
:101FC0001FC0103C00E01F0000E0103C1FC00000DC
:101FD0001004180C163401C001C01634180C10047B
:101FE00010001C00130400FC13041C00100000006F
:101FF0000804101C1064108413041C041018000042
:102000000000000000007FFE40024002400200008D
:10201000000030000C0003800060001C0003000082
:1020200000004002400240027FFE0000000000006D
:1020300000000000200040004000400020000000A0
:102040000001000100010001000100010001000188
:1020500000004000400020000000000000000000E0
:1020600000000098012401440144014400FC0004E4
:1020700010001FFC008801040104008800700000AB
:1020800000000070008801040104010400880000C1
:102090000000007000880104010411081FFC000406
:1020A000000000F8014401440144014400C800005C
:1020B0000000010401040FFC1104110411001800B8
:1020C000000000D601290129012901C901060000EB
:1020D00010041FFC008401000100010400FC000446
:1020E00000000104190419FC0004000400000000B1
:1020F0000000000300010101190119FE00000000A9
:1021000010041FFC0024004001B4010C0104000075
:102110000000100410041FFC000400040000000074
:10212000010401FC0104010001FC0104010000FCA8
:10213000010401FC008401000100010400FC000412
:10214000000000F8010401040104010400F800008B
:10215000010101FF008501040104008800700000F6
:1021600000000070008801040104010501FF000166
:102170000104010401FC008401040100018000004D
:10218000000000CC01240124012401240198000056
:1021900000000100010007F8010401040000000034
:1021A000010001F8000400040004010801FC00041F
:1021B000010001800170000C00100160018001002D
:1021C00001F0010C003001C00030010C01F00100F1
:1021D00000000104018C00740170018C01040000F6
:1021E000010101810171000E0018016001800100F0
:1021F00000000184010C013401440184010C000041
:10220000000000000000000001003EFC400240020F
:102210000000000000000000FFFF000000000000C0
:102220000000400240023EFC0100000000000000EF
:10223000000060008000800040004000200020007E
:10224000000000000000000000000000000000008E
:10225000000000000000000000000000000000007E
:10226000000000000000000000000000000000006E
:102270000000000F80380FFE380F8038000000008B
:10228000000000000000000000000000000001004D
:10229000000600000C0000380000310000060000BD
:1022A0000C000038000030000000000000000000BA
:1022B00061800067F807F98000618000618000613B
:1022C000800061800067F807F980006180000000ED
:1022D00000000000000001C0E003E0F00630080448
:1022E00018081FFFFE040E080787F00381E00000B6
:1022F0000000000001F000060C00040408060C7049
:1023000001F9C0000E00003BE000EC1807080804CB
:102310000C180003E00000000001E00007F003F8E3
:1023200018041C0804170807E1D003C0E00023B01C
:10233000003C080020080000100000000000000120
:1023400000003100003200001C000000000000000E
:10235000000000000000000000000000000000007D
:10236000000000000000000000000000000000006D
:102370007F0001FFC00780F00C001810000420004F
:10238000020000000000002000021000040C0018F1
:102390000780F001FFC0007F000000000000000087
:1023A0000000000000000000000000004200006685
:1023B00000006600003C0000180003FFC000180089
:1023C000003C0000660000660000420000000000C3
:1023D000080000080000080000080000080001FFD5
:1023E000C000080000080000080000080000080005
:1023F00000000000000100003100003200001C005D
:1024000000000000000000000000000000000000CC
:1024100000000000000000000800000800000800A4
:102420000008000008000008000008000008000084
:10243000080000080000000000000000000000008C
:1024400038000038000038000000000000000000E4
:10245000000000000000000000000000000000007C
:10246000000600001C000070000180000E00003813
:102470000000C0000700001C000030000000000049
:10248000000000007F8001FFE00380700600180458
:10249000000804000806001803807001FFE0007FB8
:1024A000800000000000000000000100080100089A
:1024B00001000803FFF807FFF8000008000008000B
:1024C000000800000000000000000001C03802C049
:1024D00058040098040118040218040418061C1873
:1024E00003F81801E0F800000000000000000001FF
:1024F000C0E003C0F0040008040808040808061837
:102500000803F41801E7F00001E0000000000000FB
:10251000000000000300000D000011000061000039
:10252000810803010807FFF80FFFF8000108000108
:10253000080000000000000000E007FCD0060808CA
:10254000061008061008061008061838060FF006D0
:1025500007C0000000000000000000003F8001FFF5
:10256000E00384300208180410080410080410085E
:10257000071810030FF00007C00000000000000063
:10258000000003C0000700000600000600F8060770
:10259000F806180006E00007000006000000000032
:1025A00000000001E1E003F7F0063410041808040D
:1025B0001808040C08040C0806161803F3F001C1EF
:1025C000E000000000000000F80003FC30030638C3
:1025D0000402080402080402080404100308F001BD
:1025E000FFC0007F000000000000000000000000AD
:1025F00000000000000000007038007038007038E3
:1026000000000000000000000000000000000000CA
:10261000000000000000000000000000301A003040
:102620001C0000000000000000000000000000008E
:10263000000000000000000800001400002200005C
:1026400041000080800100400200200400100800CA
:10265000080000000000000021000021000021000F
:1026600000210000210000210000210000210000C5
:102670002100002100000000000000000000080010
:10268000080400100200200100400080800041008A
:1026900000220000140000080000000000000003F9
:1026A000C00004C000040000080038080F38080803
:1026B000380810000C300007E00003C000000000E4
:1026C000000000003F8000FFE0038070020F100652
:1026D000708804C088048308047F8802C0900301C6
:1026E0002000FE400000080000180001F8003E082D
:1026F00001C20007020007E20000FE00001FC80040
:1027000001F800003800000804000807FFF807FF80
:10271000F80408080408080408080408080618084B
:1027200003F41801E7F00001E000000000000000E1
:102730003F8001FFE00380700200180400080400DD
:10274000080400080400100600200780C0000000F4
:1027500004000807FFF807FFF80400080400080455
:10276000000804001802001003807001FFE0007FE1
:102770008000000004000807FFF807FFF8040808BD
:10278000040808040808040808043E0804000806B1
:10279000001801006000000004000807FFF807FFB0
:1027A000F8040808040800040800040800043E00B7
:1027B000060000060000018000000000000000008C
:1027C0003F8001FFE0038070060018040008040247
:1027D000080402080203F00783F000020000020070
:1027E00004000807FFF807FFF804080800080000C5
:1027F000080000080000080004080807FFF807FFA9
:10280000F8040008000000000000040008040008AC
:1028100004000807FFF807FFF80400080400080494
:10282000000800000000000000000000000600009A
:102830000700000104000104000104000307FFFE7B
:1028400007FFFC0400000400000400000400080767
:10285000FFF807FFF8040C08001800003E0004C74A
:10286000800503C80600F8040038040018000008BA
:1028700004000807FFF807FFF8040008000008003C
:102880000008000008000008000008000018000010
:102890006000000004000807FFF807800807FC003C
:1028A000007FC00003F80007C00078000780080719
:1028B000FFF807FFF804000804000807FFF8070006
:1028C0000803C00000E000003800001E0000070000
:1028D0000001C00400F007FFF80400000000000041
:1028E0007F8001FFE00380700600180400080400E8
:1028F0000806001803003001FFE0007F80000000A0
:1029000004000807FFF807FFF804040804040004A3
:102910000400040400040400060C0003F80001F0A5
:1029200000000000000000007F8001FFE0038070D5
:102930000600880400880400C806003C03003E012D
:10294000FFE6007F8400000004000807FFF807FF8F
:10295000F8040808040800040C00040F00040BC06D
:102960000610F003F03801E0080000080000000144
:10297000E0F803F030063010041808041808040CBE
:1029800008040C080206180207F00781E0000000A6
:102990000180000600000400000400000400080795
:1029A000FFF807FFF8040008040000040000060018
:1029B0000001800004000007FFE007FFF00400189A
:1029C00000000800000800000800000800000804DB
:1029D000001007FFE004000004000006000007E00C
:1029E0000007FE00041FE00001F80000380001E0CD
:1029F000043E0007C00006000004000004000007B9
:102A0000E00007FFC0041FF80007C007F80007FF39
:102A100080043FF80007C004F8000700000400002D
:102A200000000004000806001807C07805F1C8007F
:102A30003E00001F800463E80780F80600180400C9
:102A40000800000004000006000007800007E008FE
:102A5000047C08001FF80007F800180804E00807C5
:102A6000000006000004000000000001000806004D
:102A7000380400F80403E8040F08047C0805F00893
:102A800007C00807001804006000000000000000F4
:102A900000000000000000000000003FFFFE2000DA
:102AA000022000022000022000022000020000009C
:102AB00000000000000008000007000000C0000047
:102AC00038000006000001C000003000000E0000C9
:102AD00001000000000000000000200002200002B1
:102AE0002000022000022000023FFFFE0000000044
:102AF00000000000000000000000000000000000D6
:102B0000000800001000003000002000003000002D
:102B1000100000080000000000000000000001009C
:102B200000010000010000010000010000010000A0
:102B3000010000010000010000010000010000018F
:102B40000000000000000000002000002000001035
:102B50000000100000000000000000000000000065
:102B6000000000000000000000F00019F8001B1831
:102B7000002208002608002408002410003FF80066
:102B80001FF800000800001800000004000007FF04
:102B9000F80FFFF0001818001008002008002008A7
:102BA000003018001FF0000FC000000000000000FF
:102BB00007C0001FF0001830002008002008002087
:102BC00008003C08001C100000600000000000002D
:102BD0000000000007C0001FF000381800200800A7
:102BE000200800200804101007FFF80FFFF0000075
:102BF000100000000000000000000007C0001FF0EF
:102C000000123000221800220800220800320800BA
:102C10001E10000E20000000000000002000002018
:102C20000800200801FFF803FFF806200804200828
:102C3000042008072000030000000000000000003E
:102C4000000E000E6E001FF30031B10020B1002015
:102C5000B1003191001F13002E1E00200E00300025
:102C600000000004000807FFF80FFFF8001008003C
:102C70002000002000002008003FF8001FF800009E
:102C800008000000000000000000002008002008EC
:102C9000002008063FF8063FF80000080000080082
:102CA000000800000000000000000000000000001C
:102CB00003000003002001002001002003063FFE66
:102CC000063FFC00000000000000000000000004BF
:102CD000000807FFF80FFFF8000188000300002F2D
:102CE000C00038F80020380020080000080000006C
:102CF00000000000000004000804000804000807A9
:102D0000FFF80FFFF80000080000080000080000AE
:102D100000000000002008003FF8003FF800100805
:102D2000002000003FF8003FF800100800200000DD
:102D30003FF8003FF8000008000000002008003FB6
:102D4000F8003FF8001008001000002000002008E4
:102D5000003FF8001FF8000008000000000000001D
:102D600007C0000FF00018300030080020080020D5
:102D700008003008001830000FF00007C000000005
:102D8000000000002001003FFF003FFF0010110085
:102D90002009002008002008003038001FF0000F34
:102DA000C00000000000000007C0001FF00038183D
:102DB000002008002008002009001011001FFF005B
:102DC0003FFF000001000000002008002008002054
:102DD00008003FF8003FF80008080010080020082D
:102DE0000020000030000030000000000000000063
:102DF0000000000C78001E18003308002308002192
:102E0000080021880021980030F0003860000000A0
:102E100000000000200000200000200000FFF00360
:102E2000FFF8002008002008002008000030000003
:102E300000000000000000002000003FF0007FF8CC
:102E4000000018000008000008002010003FF800F3
:102E50007FF00000100000000000000020000030A3
:102E600000003C00003F800023F00000780000706C
:102E7000002380003C000030000020000020000003
:102E80003C00003FE00023F80000E0002700003E87
:102E900000003FE00021F80001E0003E00002000BB
:102EA000000000002008002008003838003E6800BC
:102EB00027800003C8002CF80038380020180020B4
:102EC00008000000000000002000003003003C016A
:102ED000003F830023EC000070002380003C0000D2
:102EE000200000200000000000000000000000386A
:102EF000080020380020F80023E8002F88003E0852
:102F000000380800201800007000000000000000D9
:102F10000000000000000000000000000800001495
:102F2000001FF7FC30000620000200000000000037
:102F30000000000000000000000000000000000091
:102F40000000FFFFFF000000000000000000000084
:102F50000000000000000000000020000230000619
:102F60001FF7FC0014000008000000000000000033
:102F700000000000000000000000001800006000D9
:102F80000040000040000020000010000008000089
:102F90000400000400000C0000100000BC2F00081A
:102FA00000000020240000006C010008E02F000851
:102FB00024000020DC14000088010008010000004B
:102FC0001000000000000000000000000024F400D9
:102FD0000000000000FF01000000000000000000F1
:0400000508000131BD
:00000001FF
